:020000040000FA
:06000000020AB30202191E
:03002B000208D0F8
:030033000205BF04
:0300530002014E59
:03006B0002058DFE
:100083000201AD0100F0FF0700080000FFFF0000C0
:100093000504000000030001FF0020FD000206FF2D
:1000A300FF1E010100EB110000009B120000000085
:1000B3000000000000000000000010484F4D4520E4
:1000C300202020202020202020202001074E554DD5
:1000D30042455231010401000000027781027B8115
:1000E300010400002612000000E8030000FFFF7770
:1000F300120188130000E803000064006400B801E3
:10010300A0BB0D00A0BB0D00020202070401051EE7
:1001130002051E020A0A010108080103B80B028046
:100123003E0102FEFFE8030A050001FFFF020A0188
:100133001401E005030101FF0F102400000000E497
:100143002200000000FF000000FF00C0E074F11275
:100153000430A2AFE433F509D2AF85A708AFA1EF0E
:100163005508FE74105E6006120D2575A1EF740824
:100173005E6008120D2B75A1F78024EFA2E092F0C8
:10018300E508A2E082F05017906198E0F89004A08F
:10019300E0C398A2D265D0335002E8F075A1FEE522
:1001A30009A2E092AF7F0202048FC0E074F212044E
:1001B30030A2AFE433FED2AF9061A4E0F8759B00A8
:1001C300E59158540860087591F7120D798023E57D
:1001D3009158541060087591EF120D7F8014E591CA
:1001E300A2E092F0E8A2E082F05007E0C2E0F01251
:1001F3000EC99061A3E0F8E5E9585404600E120EAD
:100203009F75E9FB906193E0A2E640F2EEA2E092D3
:10021300AF7F0102048FC0E074F2120430A2AFE496
:1002230033FED2AF9061A5E0F8E5BF5854046006F1
:1002330075BFFB120EE180D4C3E498F8E499F91278
:10024300027C8026C3E49AFAE49BFBE920E7E912E7
:10025300027CE498F8E499F922C3E498F8E499F964
:1002630012027CE498F8E499F9C3E49AFAE49BFB5C
:1002730022EB20E7CFE920E7E0B90010BB0008E854
:100283008AF084F8AAF022E4FBC8FA22EB70227BFE
:1002930010C833C8C933C9335007C39AC3DBF280CC
:1002A300069A50012ADBEAC833F4C8C933F4C9FA01
:1002B3002275F008E4C833C8C933C933C99AC99B46
:1002C3005004C92AC93BD5F0ECFBC833F4C8E4C9D0
:1002D300FA22080808EAC0E0EBC0E086F0E7A4FAD7
:1002E300180986F0E7A42AFA180986F0E7A42AFA7F
:1002F300180986F0E7A42AFA1986F0E7A4FBE5F0CB
:100303002AFA190886F0E7A42BFBE5F03AFA190854
:1003130086F0E7A42BFBE5F03AFA18180986F0E714
:10032300A4C5F02BFBE43AFA1908E7C5F0C6A426E6
:10033300F6E5F03BFBE43AFA1886F0E7A4F6E5F0BD
:100343000826F6E43B08F6E43A08F6D0E0FBD0E0F2
:10035300FA22E4CFC0E0E4CEC0E0E4CDC0E0E4CCD8
:10036300C0E075F020E626F608E633F608E633F635
:1003730008E633F6181818EC33FCED33FDEE33FEC4
:10038300EF33FFC3EC9709ED9709EE9709EF971940
:100393001919400FFFEC97FC09ED97FD09EE97FE45
:1003A300191906D5F0BFECF709EDF709EEF709EFD8
:1003B300F7191919D0E0FCD0E0FDD0E0FED0E0FF42
:1003C300222518C582C0E0E51934FFC583C0E0E5E6
:1003D30018C3958224F810AF088583198582188085
:1003E30008858319858218D2AFCEF0A3E520F0A348
:1003F3007808E608F0A3DEFAEFF0A3E58124FAF823
:10040300E608F0A3E608F0A3E608F0A30808E60868
:10041300F0A3E608F0A315811581D0E0FED0E0F843
:10042300158115811581E8C0E0EEC0E022C0D0251A
:1004330018C582C0E0E51934FFC583C0E0E518C3E1
:10044300958224F310AF0885831985821880088567
:100453008319858218D2AFC8F0A3E9F0A3EAF0A309
:10046300EBF0A37908E709F0A3D8FAECF0A3EDF0D9
:10047300A3EEF0A3EFF0A3D0E0F0A3D0E0F0A3D07D
:10048300E0F0A3E520F0A3E5F0F0A322851983852E
:100493001882E0C0E0A3E0F9A3E0FAA3E0FBA378AD
:1004A30008E0F608A3DFFAE0FCA3E0FDA3E0FEA367
:1004B300E0FFA3E0C0E0A3E0C0E0A3E0F5D0A3E049
:1004C300F520A3E0A3F5F010AF0885831985821802
:1004D3008008858319858218D2AFD082D083D0E07B
:1004E300F8D0E032120B2DB90003020526E4900484
:1004F30001781679128002F0A3D8FCD9FA7A167B18
:100503001590008678C979018015E493A3AD82AE76
:10051300838A828B83F0A3AA82AB838D828E83D856
:10052300E9D9E77582107583A274041208477582AE
:1005330057758320740012084775F0108E1A8F1BAD
:1005430085821F85831E851882851983E0CEA3E0EB
:10055300CF851F82851E83EBC9EAC8EDCBECCAC3E6
:10056300E833C8E933C9EA33CAEB33CBC3EA9EF5B0
:100573001DEB9FF51CB35004AB1CAA1DEC33CCED53
:1005830033CDD5F0DAAE1AAF1B22C0E074F21204F9
:1005930030A2AFE433FED2AFE589A2E15003120CDF
:1005A30065E589A2E25003120C657589007589001F
:1005B300C2C5EEA2E092AF7F0102048FC0E074F2E5
:1005C300120430A2AFE433FED2AFE58BA2E05003B6
:1005D300120C65758B00C2E880D8D083D082ECC042
:1005E300E0EDC0E0E493A3FCE493A3FDED4C600DC8
:1005F3001206B5EC24FFFCED34FFFD80EFE493A37A
:10060300FCE493A3FDED4C600D120752EC24FFFCB8
:10061300ED34FFFD80EFD0E0FDD0E0FCE493A3C018
:10062300E0E493C0E022851983851882E0A3FEE00D
:10063300A3F5207808E0A3F608DFFAE0A3FFE0A320
:10064300C0E0E0A3C0E0E0A3C0E0E0A3C0E0E0A31B
:10065300C0E010AF08858218858319800885821849
:10066300858319D2AFD083D08202084DD083D08244
:10067300E9C0E0E493A3C386F0C5F095F0F908E47C
:1006830093A386F0C5F095F0700BE493A3C3994050
:1006930005E9048002A3E475F002A42582F582E54E
:1006A300F03583F583D0E0F9E493A3C0E0E493C08D
:1006B300E022C0E0C3E49396087401939618400FB8
:1006C300E49366700808740193661870007019A3A8
:1006D300A3C3E49396087401939618A3A3400DD083
:1006E300E0D0E0D0E0020619A3A3A3A3A3A3D0E024
:1006F300227404800474028000CCC0E0EDC0E0E505
:1007030018C39CCCAD1950011D10AF068C188D1960
:1007130080068C188D19D2AF1207C9D0E0FDD0E046
:10072300FC2274028000CCC0E0EDC0E0E518C39C5D
:10073300CCAD1950011D10AF068C188D1980068C95
:10074300188D19D2AF1207A7D0E0FDD0E0FC22C06C
:10075300E0C0F088F0E493667008087401936618AB
:100763007000A8F0A3A3700BD0F0D0E0D0E0D0E0ED
:10077300020619A3A3D0F0D0E022D083D082CCC04C
:10078300E0E493A360061208091470FAE493A360EB
:10079300061209331470FAD0E0FCE493A3C0E0E43A
:1007A30093C0E022CAC0E0E493A3C582CCC582C54E
:1007B30083CDC583F0A3C582CCC582C583CDC58354
:1007C300DAE5D0E0CA22CAC0E0E0A3C582CCC58284
:1007D300C583CDC583F0A3C582CCC582C583CDC5F2
:1007E30083DAE6D0E0CA22C008C3E096F50808A37E
:1007F300E096420808A3E096420808A3E09645085D
:100803007001D3D00822C0E0E493A3D39C5010E43A
:1008130093A3C39C400AD0E0D0E0D0E002079AA3A0
:10082300A3A3D0E02270090808082260161818183C
:10083300C6C333C608C633C608C633C608C633C6DE
:10084300D5E0EA22C09FF59FE473D09F22D083D0E6
:1008530082C09FE493C0E0740193C0E0740293F5F7
:100863009F227404800A7403800674028002740158
:10087300C0E0F40412089BD0E0120AF02200C0D0BA
:10088300251810AF08F518500C05198008F51850F5
:10089300020519D2AFD0D0222518F58210AF08F582
:1008A30018400C15198008F51840021519D2AF85A8
:1008B300198322BB0102E722C082C08389828A8313
:1008C300BB0003E08002E493D083D08222C0E0C067
:1008D300D0E8C0E0A8A8D2AFC2C7E8A2E792AFD0E1
:1008E300E0F8D0D0D0E0326016080808C6C313C6BB
:1008F30018C613C618C613C618C613C6D5E0EA220F
:10090300C3E0C696F608A3E0C696F608A3E0C6962B
:10091300F608A3E0C696F6222518F8E43519F9225D
:100923002518FAE43519FB222518FCE43519FD22B4
:10093300C0E0E493A36C7009D0E0D0E0D0E00207FC
:100943009AA3A3D0E022251810AF08F518400C1580
:10095300198008F51840021519D2AF22E766701006
:100963000809E766700A0809E76670040809E7667C
:1009730022C3E09608A3E09608A3E09608A3E096B6
:10098300A2D265D03322E066701008A3E066700A35
:1009930008A3E066700408A3E06622C3E096F008AB
:1009A300A3E096F008A3E096F008A3E096F022C334
:1009B300E697F60809E697F60809E697F60809E6C2
:1009C30097F622C3E49396087401939608740293EE
:1009D30096087403939622E647F60809E647F60855
:1009E30009E647F60809E647F622700422600D1867
:1009F300C6C333C608C633C6D5E0F41822E026F6CC
:100A030008A3E036F608A3E036F608A3E036F6229C
:100A1300E657F60809E657F60809E657F60809E621
:100A230057F622E056F608A3E056F608A3E056F67A
:100A330008A3E056F622E627F60809E637F6080982
:100A4300E637F60809E637F622E056F008A3E05643
:100A5300F008A3E056F008A3E056F022E026F008E1
:100A6300A3E036F008A3E036F008A3E036F022E472
:100A7300C396F608E496F608E496F608E496F6229A
:100A8300C6F4C608C6F4C608C6F4C608C6F4C62229
:100A9300C3E7960809E7960809E7960809E7962247
:100AA300C3E09608A3E09608A3E09608A3E0962285
:100AB30075D00075813F751801751904000204E7AC
:100AC300E6F008A3E6F008A3E6F008A3E6F0226048
:100AD3000C08C6C313C618C613C6D5E0F422E0F645
:100AE30008A3E0F608A3E0F608A3E0F622CAC0E0F4
:100AF300E6F0A308DAFAD0E0FA22E8F0A3E9F0A3DB
:100B0300EAF0A3EBF022E0F8A3E0F9A3E0FAA3E014
:100B1300FB22EAF0A3EBF0A3ECF0A3EDF022E0FA62
:100B2300A3E0FBA3E0FCA3E0FD22E5C754F84401E6
:100B3300F5C77901222518F582E43519F58322C218
:100B4300AF75D69F020000221208506EE30312080D
:100B53005078E30312085015E403120850D4E40359
:100B630012085059E603120850B0E603120850E881
:100B7300E60312085017BA0312085093BA03120877
:100B830050C6BA03120850F4BA031208500EBD033C
:100B93001208502ABD031208506FBD03120850F407
:100BA300BD0312085040BE03120850D0BE03120802
:100BB30050A8BF03120850F9BF031208505EC003C8
:100BC300120850DBC00312085011C1031208505C15
:100BD300C10312085082C10312085012C203120843
:100BE30050A9C203120850F5C20312085026C303CA
:100BF3001208505DC303120850EEC403120850B824
:100C0300C50312085092C603120850D8AF04120845
:100C130050E9AF0412085001B004120850F27F00EB
:100C230012085067B00412085082AE0412085092A2
:100C3300AE04120850AAAE0412085012AF041208F0
:100C43005085AB0412085008AC041208506EAC0473
:100C53001208505EAA0412085082AA041208500116
:100C6300AB041208503BAB04120850FBA704120854
:100C73005010A80412085084A8041208509EA80417
:100C8300120850B5A804120850C3A804120850DB78
:100C9300A804120850F9A80412085011FC03120802
:100CA300501FFC0312085098FC031208506CFD03FC
:100CB3001208503EFF03120850A0AF041208508DD3
:100CC300FA02120850B9FA021208502AFD02120859
:100CD300506AFD02120850AAFD02120850BEFD021E
:100CE300120850D7FD02120850C8FE021208506DB8
:100CF300FF0212085081FF0212085007A4041208D1
:100D0300502BA40412085044A40412085076A404DF
:100D1300120850A6A404120850D3A4041208503594
:100D2300A50412085044A5041208504EA504120845
:100D3300505BA504120850E49A04120850049B0463
:100D4300120850439B041208505E9B041208507D06
:100D53009B04120850E39B04120850EC9B041208F6
:100D630050499C04120850589C041208507C9C045F
:100D73001208503D9D041208504A9D041208505B0E
:100D83009D0412085015AF041208502DAF04120829
:100D93005059AF04120850C2F7031208501CF9034C
:100DA3001208502AF9031208503DF9031208505251
:100DB300F90312085067F9031208507AF90312086D
:100DC30050EEF90312085053FA03120850F5FA03D0
:100DD300120850B9FB03120850C9FB03120850D87C
:100DE300FB03120850567F001208507A7F00120846
:100DF30050A27F00120850CA7F00120850899D0438
:100E0300120850B09D04120850CE9D0412085041A0
:100E13009E041208505B950412085074950412083E
:100E230050809504120850949504120850B295040A
:100E3300120850BC9504120850C69504120850D9E4
:100E430095041208505F9604120850D496041208B1
:100E530050039704120850519704120850A09704A6
:100E6300120850BB9704120850C59704120850D6B5
:100E730097041208501998041208509DFF02120893
:100E8300502EE70312085058E70312085075E70382
:100E930012085088E7031208509EE703120850FC1B
:100EA300E70312085034E80312085028EC03120831
:100EB300506DED03120850A0ED0312085003EE032A
:100EC30012085063EF031208508BEF03120850A06F
:100ED300EF03120850B0EF03120850F4EF031208A7
:100EE300504FF0031208505FF0031208502EA9046C
:100EF30012085048A90412085070A9041208508916
:100F0300A904120850ADA904120850CBA904120871
:100F130050E2A90412085010AA041208502BAA0484
:100F23001208505CAF04120850F28B0412085002EE
:100F33008C04120850078D04120850398D041208CE
:100F430050698D041208508C8D04120850A38D042F
:100F5300120850DD8D04120850428E04120850848A
:100F63008E04120850C38E04120850F48E04120823
:100F7300501F8F0412085065A50412085077A5046A
:100F83001208508BA6041208508EA604120850872C
:100F9300AD04120850BDAD04120850D3AD041208BD
:100FA3005015AE0412085025AE0412085034AE0496
:100FB30012085078AE041208508FF003120850C97B
:100FC300F00312085032F1031208504FF1031208D4
:100FD30050F1F103120850FAF1031208503FF203E3
:100FE30012085068F20312085075F203120850E613
:100FF300F20312085071F303120850BFF3031208EF
:1010030050FDF30312085062F40312085085F403F1
:10101300120850FCF40312085053F5031208508EC3
:10102300F503120850C3F503120850D5F50312084F
:1010330050E7F50312085006F6031208500FF603A3
:10104300120850CAF60312085016F7031208505438
:10105300F703120850BBA604120850A3FF0312089B
:1010630050DA9F0412085010A00412085058A0042C
:10107300120850B1A1041208500596031208502912
:1010830097031208506397031208500D990312082F
:1010930050379903120850AC9B03120850EC9B0382
:1010A300120850829D031208501F9E0312085071AC
:1010B3009E03120850149F031208504C9F031208FA
:1010C300508E9F03120850FDA0031208504BA20339
:1010D3001208507CA403120850AAA403120850D18A
:1010E300A403120850DAA40312085031A50312080E
:1010F30050C3A503120850F0A80312085073A903A4
:10110300120850E8FF021208505C8404120850725F
:1011130084041208501685041208505585041208D9
:1011230050728504120850A38504120850F08504F8
:101133001208502386041208505E86041208505386
:10114300880412085087AC04120850E6AC04120855
:101153005024AD0412085065AD04120850B9A5021D
:10116300120850C5A50212085027A60212085031D2
:10117300A602120850BEA602120850FAA6021208CE
:1011830050B4A70212085004A802120850A5A802DE
:1011930012085025A902120850E1AA02120850D8D9
:1011A300AC02120850E0AD021208508DAE021208D4
:1011B3005047B30212085041B402120850DBB40284
:1011C30012085000B5021208509CB502120850B123
:1011D300B502120850D5B50212085046B6021208DD
:1011E3005063B6021208508DB60212085021B8029D
:1011F300120850C7B8021208500EB90212085073F1
:10120300B902120850F4B90212085058BA0212086F
:1012130050B4BA021208504ABB02120850B4BB02BF
:10122300120850E8BB021208504CBC02120850A529
:10123300BD0212085034BF02120850E2BF02120866
:101243005010C00212085015C202120850AFC40257
:10125300120850AFC5021208506088041208501AD1
:101263008904120850808904120850A189041208C5
:1012730050748A041208502498041208509A98044F
:10128300120850919904120850569A04120850A358
:101293009A04120850CB9A04120850CE9A041208EA
:1012A30050D79A041208503CB004120850C7EA0100
:1012B300120850F6EA011208506EEB011208507141
:1012C300EC01120850CDEC011208504EEE01120849
:1012D300506AEE01120850BCEE01120850FAEE01FA
:1012E3001208500DEF011208505FEF011208501A57
:1012F300F00112085086F001120850B0F0011208F4
:1013030050E8F0011208505AF20112085033F30169
:101313001208507CF4011208504FF501120850D7FF
:10132300F5011208501FF60112085039F601120890
:101333005080F601120850A0F60112085036F7014A
:10134300120850C5F7011208501FF8011208506324
:10135300F801120850DFFA011208500DFC011208BF
:101363005049FC011208503BFD0112085063FD0176
:1013730012085066FD0112085070FD0112085083D7
:10138300FD011208500CFE0112085042FE01120822
:10139300506EFE0112085095FE01120850B9FE016D
:1013A3001208502AFF0112085038FF011208506B2F
:1013B300FF0112085081FF011208508DFF0112082E
:1013C30050CBFF01120850EF7F0012085055E40282
:1013D30012085078E402120850BEE50212085007C2
:1013E300E60212085061E602120850C7E60212082C
:1013F30050CAE60212085016E70212085090E7029C
:1014030012085016E80212085019E802120850A5F3
:10141300E802120850E8E80212085027ED02120809
:1014230050C4EE0212085006EF021208507BF2027B
:10143300120850A9F30212085033F502120850C0E3
:10144300F502120850BAF60212085011F9021208F6
:1014530050C0A90312085060AA03120850CAAA0375
:10146300120850E3AA031208506DAB03120850C3CD
:10147300AB0312085007AC031208506EAC031208FA
:1014830050E4AD0312085012AF031208508BAF03A0
:101493001208508EB10312085036B203120850C519
:1014A300B20312085098B30312085073B50312081D
:1014B3005014B703120850BCB703120850CEB80338
:1014C300120850DDC90212085051CA02120850997D
:1014D300CA02120850D7CA0212085020CB021208BF
:1014E300506ACB02120850A2CB0212085020CC0241
:1014F3001208507ACC02120850D6CD021208506757
:10150300CE02120850C5CE02120850DFCE021208D6
:101513005000CF021208505E9503120850C9D10241
:10152300120850E8D102120850C7D202120850DF45
:10153300D3021208505CD402120850C9D402120814
:101543005032D502120850ECD502120850AAD70225
:10155300120850ABD80212085030DA021208501B9E
:10156300DC021208507EDE0212085024E002120848
:1015730050F2E00212085058E10212085064E303EB
:101583001208505FE2021208504BE302120850B8EF
:10159300E3021208507A9204120850C69304120808
:1015A30050839404120850E79404120850778F0470
:1015B300120850928F04120850D68F04120850FC60
:1015C3008F041208502290041208503A9004120813
:1015D300509D9004120850B29004120850D4910404
:1015E300120850DD9104120850E69104120850EFDE
:1015F3009104120850008004120850EE830412086C
:1016030050F38304120850F5830412085094A20483
:1016130012085010B0041208500080021208503310
:1016230080021208509F80021208503A8102120869
:1016330050D781021208501C82021208503E8202C7
:101643001208505782021208507D82021208509FDE
:101653008202120850DD820212085021830212080E
:1016630050438302120850A583021208506C84026F
:101673001208502385021208509585021208506003
:101683008602120850B38602120850198702120804
:1016930050538702120850A587021208501388027C
:1016A3001208507E880212085081880212085002E4
:1016B3008902120850998902120850198A021208E5
:1016C30050388A021208509C8B02120850A98B02D0
:1016D300120850B58C02120850C28C02120850CB6B
:1016E3008C02120850A38E02120850BD8F021208FA
:1016F30050369002120850A89002120850CA900265
:101703001208505E910212085032930212085009D7
:1017130097021208501D97021208502D97021208C3
:101723005037970212085040970212085049970207
:10173300120850539702120850809702120850A9BA
:101743009702120850B49702120850D89702120851
:1017530050FC9702120850669802120850AC980287
:10176300120850C998021208504699021208507D77
:101773009902120850BC9902120850099A021208E1
:10178300508F9A021208505D9C02120850E09C028E
:10179300120850C49D021208502BA0021208508454
:1017A300A002120850CEA00212085029A202120869
:1017B300505EA202120850B0A20212085065A302A2
:1017C30012085014A40212085051A402120850E641
:1017D300A40212085052A502120850512600120802
:1017E30050832600120850B12600120850872800A3
:1017F300120850672900120850BF2900120850FA36
:101803002A00120850462B001208506F2E001208AF
:1018130050623100120850B23200120850483300AF
:10182300120850543300120850863300120850092E
:1018330035001208501736001208504136001208BE
:1018430050A83600120850013700120850673700BD
:101853001208507E39001208500D3B00120850D771
:101863003B001208501D3D001208506D3F00120846
:10187300503D42001208504A4200120850D1420023
:10188300120850654300120850A843001208502E56
:1018930044001208504B44001208507B44001208C5
:1018A30050B04400120850804500120850294600E9
:1018B300120850AF4800120850CF4900120850BA1E
:1018C3004A001208503C4B00120850734F00120894
:1018D30050B04F001208500850001208503B5000FF
:1018E300120850A55000120850DB50001208506631
:1018F3005100120850BE51001208509552001208B0
:10190300504E5300120850E95300120850F156008C
:101913001208500D5800120850B05B00120850A472
:101923005C00120850A75C00120850D65C00120835
:1019330050DC5E00120850B55F00120850F85F00DB
:101943001208504E61001208508D61001208501F9A
:101953006200120850536200120850186300120804
:1019630050306500120850A16500120850E165006F
:101973001208506F660012085097670012085059FA
:101983006800120850606A00120850786A00120852
:10199300508C6A00120850C46A00120850F26A00A0
:1019A300120850716C00120850966D00120850FA1C
:1019B3006D00120850AC6E00120850DC6E00120865
:1019C30050A36F001208503B700012085061720060
:1019D300120850967200120850F97200120850282B
:1019E3007400120850D074001208500175001208D8
:1019F30050197500120850A875001208505C780041
:101A0300120850347A00120850507A001208506CB1
:101A13007A001208503A7B001208502D7F001208FA
:101A2300509B8101120850CD8101120850BC8501E1
:101A33001208500886011208504E8601120850F011
:101A430086011208504C8701120850918701120831
:101A530050D88801120850EC8901120850DB8D011F
:101A63001208505F8E011208506C8F01120850C883
:101A73008F01120850B891011208502D92011208DB
:101A8300503792011208504492011208506F92018C
:101A93001208505693011208500094011208507E08
:101AA30094011208509E9401120850C79401120821
:101AB30050E994011208504997011208500F9801F8
:101AC300120850549801120850D1980112085082FC
:101AD3009901120850B49901120850FA9901120899
:101AE30050369A01120850869A01120850DA9A0168
:101AF300120850309B011208507C9B01120850E9D8
:101B03009B01120850649C011208502F9E01120879
:101B1300502F9F0112085054A00112085093A301A3
:101B2300120850A6A60112085063A701120850A775
:101B3300A70112085057A9011208506BA9011208F6
:101B43005075A9011208507FA9011208508BA901F1
:101B5300120850A7A90112085052AA011208509165
:101B6300AA011208509BAA01120850A5AA01120843
:101B73005015AB0112085060AB0112085075AC014F
:101B8300120850D1AC0112085052AD011208501185
:101B9300AE011208501AAF011208504EB0011208DC
:101BA300503CB10112085054B101120850AFB101B9
:101BB300120850CDB10112085015B2011208503C61
:101BC300B201120850D7B2011208509DB301120896
:101BD300502FB401120850A9B401120850C3B50123
:101BE30012085070B60112085098B701120850E855
:101BF300B7011208504CB801120850AEB8011208D0
:101C030050DCB80112085000B90112085035B9016F
:101C130012085066B90112085099B901120850B957
:101C2300B90112085021BA0112085015BB0112085C
:101C33005070BB0112085099BB0112085021BC011E
:101C4300120850A4BC01120850CFBC01120850B4B2
:101C5300BD011208506BC703120850A3C703120833
:101C630050C4C70312085006C80312085068C803BB
:101C730012085072C80312085082C803120850BDDC
:101C8300C8031208509DCC031208508ACE031208D1
:101C93005070D00312085007D103120850A9D10382
:101CA300120850B6BF0112085034C00112085090F8
:101CB300C001120850DBC001120850F6C00112081F
:101CC3005021C1011208503EC1011208504AC101FE
:101CD300120850E1C201120850FAC2011208507FE3
:101CE300C30112085092C301120850B1C301120874
:101CF3005055C401120850D6C50112085089C701B6
:101D03001208501FC80112085022C801120850922D
:101D1300C801120850B0C80112085047C90112087F
:101D2300508FC90112085092C90112085058CA01B4
:101D3300120850C5CA01120850EBCA0112085076A6
:101D4300CB0112085094CB01120850DACB011208D0
:101D5300508ECC01120850D8CC0112085007CD0187
:101D630012085064CD0112085099CD01120850C5D4
:101D7300CD01120850D3CD0112085020CE01120814
:101D83005090CE01120850D9CE0112085025CF0130
:101D930012085051CF011208505CCF011208507A3B
:101DA300CF0112085065D0011208506FD0011208FC
:101DB30050AAD001120850BAD001120850C3D00162
:101DC30012085017D1011208502BD1011208505A92
:101DD300D2011208506FD201120850FDD20112082D
:101DE3005042D301120850CED301120850D9D30167
:101DF3001208501BD50112085036D5011208508223
:101E0300D501120850F1D5011208502AD601120843
:101E13005044D60112085086D60112085056D901F3
:101E230012085003DA0112085070DA01120850B098
:101E3300DC01120850C8DC01120850CBDC01120887
:101E430050D7DC01120850EBDC01120850F3DC011F
:101E530012085026DD0112085028DE01120850AF87
:101E6300DE011208501FDF01120850A1DF01120822
:101E73005062E00112085081E00112085022E10192
:101E83001208507FE10112085082E101120850F656
:101E9300E10112085045E3011208504BE401120816
:101EA30050D6E401120850F1E501120850B9E601D9
:101EB300120850EAE6011208500DE7011208501605
:101EC300E70112085045E701120850D5E70112084F
:101ED300508BE80112085000E901120850A7E901EC
:101EE3001208501CEA0112085053EA0112085091DB
:101EF300EA01120850B293031208507093031208B8
:101F0300509A920312085084920312085045920388
:101F13001208509F9103120850A48E031208508D8B
:101F23008C031208505A8C03120850F58B031208C5
:101F330050888B03120850478B03120850808A0382
:101F43001208501B8A03120850C6890312085069ED
:101F53008903120850408803120850DD87031208D2
:101F6300502787031208502287031208501687034D
:101F7300120850C98303120850A383031208504860
:101F83008303120850FAE203120850E6E203120830
:101F93005045E2031208504FE10312085080E0035A
:101FA3001208507DDE03120850D0DD03120850F3EF
:101FB3008203120850E08203120850D582031208EC
:101FC3005064DD03120850B18203120850EC800301
:101FD3001208506B8003120850278003120850D553
:101FE30095031208500080031208506FE102120893
:101FF3005019DD03120850C0DC0312085082DC03C1
:1020030012085055DC0312085021DC03120850C09B
:10201300DB03120850A8DB0312085078DB03120815
:10202300504DD80312085020D60312085027D4036A
:10203300120850ADD3031208505CD3031208501694
:10204300D303120850CB950312085080D203120811
:102053005058CF0200000080FBE4738F000100C2E0
:102063001587000100C015350004008915250002FD
:10207300008D15260002008F1527000200911528F8
:102083000001009B15290001009C15840004000237
:10209300138600010024152A0001009D152B000161
:1020A300009E152C000100A2152D0008000E132E12
:1020B300000100A3152F000100A41530000100A5A5
:1020C3001531000100A6153200010016133300017B
:1020D30000171334000100A7153600010018133848
:1020E300000100A81539000100A11583000200BEFC
:1020F30015630001002413640001009F15650001AE
:1021030000A0156D00010025137100080006136679
:10211300000100BD1543000100AE1544000200AFED
:102123001545000100B11546000200B2154700082D
:10213300001C1348000100B4154B000100B5150441
:10214300000100C115A1000100C51537000100C43D
:102153001588000100C3153C00010019133D00015F
:1021630000A91549000200B6156700010026134DAA
:10217300000200B8154E000100BA154F000200BB63
:10218300153E000100AD15510001001A1352000164
:1021930000AB1553000100AC15540001001B1300E4
:1021A30000000000000001363601010001020100B9
:1021B30001030100010401060605020000070100F6
:1021C300340801000F090401010D0100FF0E08008E
:1021D3000017020000190100FF1A0100011B010092
:1021E300FE1C0100081D0200001F01000120010068
:1021F30001210200002301000F2402000026010038
:102203000127010008280200FF2A0100072B010211
:10221300402C0100002D0100012E0100012F0100BF
:10222300FF30010B1D310800003A0100083B01009B
:102233000F3C0100013D0100FF3E04000042040089
:1022430000460400004A0400004E0400005204004B
:1022530000560400005A040000000000002001960C
:1022630081000001002001958100000200200197F8
:102273008100000300200199810000040042011144
:10228300810000050042011681000006004201CAD8
:10229300800000070030019A810000100042034DC6
:1022A30015000011003003F9110000120010035E45
:1022B300150000004042015F150000FDFF2101935E
:1022C30081030000002103FA110300FDFF21819324
:1022D30081060000001001FC110600FDFF2181931F
:1022E30081010371030103010301030103010322BC
:1022F30003020301031003000300030003000300B0
:102303000300030003420300032403060300030046
:1023130003040312032503230325032303040304F4
:10232300030003000300034403000300032303002B
:102333000365032100350381030003050300030044
:10234300030003000325032303030271023001602A
:1023530002110270020102020202028002100261F3
:10236300023A0041006302730272026202430200F6
:1023730002130238000002000204021202000200EB
:10238300020002000204020402370037003C024448
:1023930002000239000002000265020002350281D8
:1023A300020002050282028302000201017101019F
:1023B300010101110101013101010101018001103C
:1023C3000161013B00140063017301720162014367
:1023D300010001130106013D013500040112010052
:1023E3000100010001000104010401330133013C38
:1023F300014401320136000001000165010001358D
:1024030000810100010501820183010001030071C4
:10241300003001600011007000310220035004807D
:10242300001000610000001400630073007200627A
:102433000043000000130006000000000004001227
:102443000000000000000000000400040037003713
:10245300003C024400000000000000000065000092
:1024630000350081000000050000008300000036F5
:10247300000100060000000F000000000000000043
:10248300000000000003FFFF00000403FFFF000043
:10249300FFFF0FF4010005C4040320000100000B3B
:1024A300000000000000000003010F000000000016
:1024B3000000000000000000000000000000000019
:1024C3000000000000000000000000000023124193
:1024D3001229127B112F1247122F12531235127B1E
:1024E300112F12471200000000000000000000003E
:1024F3000000000000000000003B127B1100000000
:1025030000000000000000000000000000000000C8
:1025130000000000000000000000000000000000B8
:1025230000000000000000000000007B1401007B9D
:10253300140200F1130280EB130300F7130400FDF0
:102543001304800314050009140600151431002731
:102553001433002D1434003314FFFF000007ECFD87
:10256300FDFDECDCDCCCBCACAC9C9C8C7C7C6C6C56
:102573005C5C5C4C4C3C3C2C2C1C1C03EAF5E5D508
:10258300D5C5B5A595958585757565655555454538
:10259300353525251515050A991A02631A056F1A8B
:1025A30007691A0C4B1A0D571AFF000000160F008B
:1025B300000B150B020002220F3300000E0F5A69A5
:1025C30067426565416C6C69616E63653039D0D172
:1025D300D2D3D4D5D6D7D8D9DADBDCDDDEDF3030C1
:1025E30016181920231A1C1E3000034D4C4651188F
:1025F3001A250502000119161816161823030030B0
:102603003017181921301B1D1F30003C40423A3F40
:102613003F392F47300C0E020B040B0A0708000F3B
:10262300020402010101010902E803000000BE04E3
:102633000A01000E000300E803FF04091103101E42
:10264300030A0C04040828020C0508151E04C082A2
:10265300C083120B7590134F74F3F0A37417F090AB
:10266300135174F9F0A37417F090135374FFF0A38C
:102673007417F09013557405F0A37418F0025FAE4D
:1026830074F71203C4901343E4F0E9901342F07C0F
:102693001C7D137A447B131211579015B4E09013E9
:1026A3004CF090134D7406F0A3741302369074F03B
:1026B3001203C4EAFEEBFF54807003022822901336
:1026C300421242C5700302281BEA241B125B3B70B3
:1026D3007CEA241F125B3B64137002A3E0706E8AD2
:1026E300828B8312287090135D1250CD750A00758A
:1026F3000B00800D1234EF1271CC121073AA0EABC3
:102703000FEA4B60488A828B83E0650C7004A3E078
:10271300650D702C8A828B83A3A3A3A3E0F50EA37C
:10272300E0F50FE50A450B8A828B83A3A3A3A3607D
:10273300C312440C850A82850B83A3A3A3A380B78A
:102743008A0A8B0B8A828B831250C980B4E50824D2
:102753002A125B3BFCE5082402F8E43509F9E8FAA0
:10276300E9FB90135D122957A3A3E06402703C8A2E
:10277300828B831250CD800B88828983A3A3A3A36A
:1027830012440CE849601F88828983E06A7003A3BE
:10279300E06B70E488828983A3A3E06C70DA901500
:1027A300BA125E6B806BECF912182F8508828509CB
:1027B30083E06401704FE508241812285912087148
:1027C30012675E1206F4E5082412122859120871E2
:1027D300E5081242B912086DE508240B126762126C
:1027E30006F8E5082417123CEFE5082402FCE4355B
:1027F30009FDE5082419FAE43509FB12202D740AB2
:10280300120880800CE064027007AA08AB09121951
:1028130055AA08AB09120FDDEEFAEF6480802DEAAA
:102823005402600C9015C97401F0EA6402FA802323
:10283300EA5408601A121829EA4B700B90135F12BE
:1028430066397A08122866EE6408FAEFFB80047A88
:10285300007B00026DF5F582E43509F583E0F50AA6
:10286300780A22FB901342E0F912112D22A3A3E070
:10287300F50CA3E0F50D227B00901342E0F9121151
:102883002174042274F41203C48A088B098A828B8C
:1028930083A3A3A3124EC5123F2F38F583E0240967
:1028A300FA126D86700302294A8A828B837402129C
:1028B3004F3A850882850983122957E8F0A3E91264
:1028C3006A008A828B83A3A3A3A3A3A3A3A3F0E594
:1028D300082403F8E4350912294C123F2F3AF583F3
:1028E300E08E828B83A3A3A3A3F0EE2409FAE43F33
:1028F300FB8E828F83A3A312611DF5838882E0A2DE
:10290300E58E828F83A3A3A3A3A350047401800144
:10291300E4F0E5082403F58289831250CDEA1256C8
:102923004E3BF583126D4D120869123F2E3B126226
:10293300188E828F83A3A3127F0C120880EEFAEF06
:10294300FB901342126DD38016F98882F583E0FA67
:10295300A3E0CA2212526AA3A32274021208807F40
:102963000402062974F21203C48A088B09ECFAEDF7
:10297300FB740E120B38E0FC120BA58A0C8B0DAE08
:102983000CAF0DEA4F6030AC08AD09120B93E96050
:1029930026AC08AD09EEFAEFFB120B99E970148E21
:1029A300828F831243F5FAEFFB120B8DAA08AB0952
:1029B300120BBD7900800279B40251B974F012038D
:1029C300C474F6120949EAFEEBFF8C088D09750FF2
:1029D300B3851882851983E4F0750E008002050E15
:1029E300902647E493F8E50EC3984003022AE6AA2B
:1029F3000E7B00120BE18A0A8B0BEA4B60E08A82A2
:102A03008B83A3A3122AED28F0F8C3EE98EF94006A
:102A130050CC7C157D007900AA08AB09120FC5853F
:102A23000A82850B83A3A3A3A3127209E0F8EEC362
:102A3300982925E0F8E433F9E50A28F582E50B390E
:102A4300F583A3A3A3A3A3A3123F39A3125C928A82
:102A53000C8B0DAC0CAD0DAA08AB09121157850AEE
:102A630082850B83A3E06401700A12675E7401120E
:102A73003F578044740112092B850A82850B831208
:102A830050CB120BC9E9603D7409120B38E0C0E06A
:102A930012675ED0E0F07409120B38E06403701320
:102AA300740112092BE508240BFAE43509FB121112
:102AB3005780127401120B3812440CE508125C782B
:102AC30035091271CA850A82850B8312676A123F20
:102AD30057A3A3E0C0E0E5082414126762D0E0F036
:102AE300750F00A90F740A026DF2A3A3A3E0F88582
:102AF3001882851983E02274F71203C4E9FE8A82DF
:102B03008B83A3A3A3A3A3A3E0540860338A828B7C
:102B130083A3A3A3A3A3A3E0540260218A828B838C
:102B2300A3A3A3A3A3A3A3A3A3E06406600F74E9D1
:102B33006E600A74CD6E600574F06E700312181126
:102B4300024AB574F01203C474EF120949740F12E8
:102B53000B3812651D7408120B38E9F0ECFEEDFF1B
:102B63007405120B3812487D124AA1A3E0F9120B27
:102B7300B17406120B3812651D7406120B38125607
:102B8300DF7003022E011241DDE0FA7406120B38E6
:102B9300E0F9121751122E61F8A3E0F9E849700326
:102BA300022E01EE2403F50AE43FF50BEE2406F5AD
:102BB30008E43FF5097C00850882F5831250CD8532
:102BC3000A82850B83E0F9120BB77403120B3812D8
:102BD300651D850A82850B83E0C0E085188285190F
:102BE30083122E5AD0E01257F4F98518828519837F
:102BF3001234F6125346122AF0FAA3E0CA2407F558
:102C030082E43AF583E8F0A3E41265282406F5820A
:102C1300E438F583E41271D6124EB6120869EE1247
:102C23003F2F3F1262187403120B38124EC524094A
:102C3300127F061208807429120B381272031229AC
:102C4300511258073A1271CA742B120B38E0C0E0C4
:102C53008518828519831256A6D0E0F07402120BF0
:102C630038E4F07425120B387808120AE1022D5863
:102C73007403120B381261D78882F583122E49A38D
:102C8300A3A3125C9DFB120BCF850E82850F83A33A
:102C9300EAF0A3EBF07403120B38122E5AA3122E90
:102CA30049125EACA2E6500F850E82850F83A3A363
:102CB300A3A3A3E0D2E1F07405120B38E0706B8597
:102CC3000E82850F83A312440C9013A1E068700356
:102CD300A3E0697055850E82850F83A3A3A3123BDE
:102CE30006750C00780C12087178081208657429AF
:102CF300120B38E0F50C780C1208717427120B389C
:102D03001206F89013AE1206F879007419120B38F4
:102D130012509D12199D740A120880850E82850F28
:102D230083A3A3A3A3A3E04405F07402120B38E02A
:102D330004FC8E828F831250C78E828F83A3A3A33A
:102D4300E0F9120BB77403120B3812651D740212EB
:102D53000B38E004F07403120B381256DF6067740B
:102D630002120B38E0FA7406120B3812440CC3EA51
:102D730098E49950517402120B381231338518823A
:102D8300851983E028F8A3E039F9E8240FF50EE468
:102D930039F50F850E82F583E4F07403120B3812B4
:102DA3002E5464016003022C737405120B387401F2
:102DB300126DE0F07403120B38125F9E123156E865
:102DC300F0A3E9022C978518828519831250CD123E
:102DD30017578518828519831206F87426120B3843
:102DE300E0FD7425120B38E0FC740A120B38E0F98D
:102DF300EEFAEFFB12180B740212088080438E82E6
:102E03008F83A3A3A3E0C0E0740C120B38D0E0F0CF
:102E1300126C42E0C0E0740D120B38D0E0F074067F
:102E2300120B381256DF7009740E120B3874B98006
:102E330007740E120B387410F07409120923121957
:102E4300977411026DF2E0850E82850F83A3A3A30D
:102E530022E01257CCE022E01257CCA3A32285181C
:102E630082851983EAF0A3EB1256E82274F0120369
:102E7300C474E11209497404120B38E9F0740312A3
:102E83000B38ECF07402120B38EDF08A0E8B0F74D2
:102E93002F120B38122872AA0CFB12174574011259
:102EA3000B38E9F0AA0CAB0D12174B7401120B3857
:102EB300E0700302312E851882851983E480158E14
:102EC300828F83A3A3A3A3A3E0D2E3F08518828513
:102ED3001983E004126D31F8851882851983E0C3E4
:102EE3009840030231257401120B38E0700302315C
:102EF30025851882851983123133E50C28F8E50DF1
:102F030039F9E8240FFEE439FF8E82F583A3A3A3E6
:102F1300A3A3E0A2E040B5750800750A08750B008D
:102F23007402120B38E060037508207C087D007979
:102F3300007405120923120FC58E828F83E0603E51
:102F43009013F1E06401701AE508D2E3F508750BFC
:102F530010123143120B38E8F0A3E9125B9074FFAF
:102F6300807643080C750A0C8E828F83A312314E30
:102F73001271CC7405120B3874FFF0A3805A7404D9
:102F8300120B38E06009E508D2E6F508750A0A8EE7
:102F9300828F83A3E064FE7003A3E0F470307412A5
:102FA300120B387404126788F8741D120B38E81278
:102FB3004F3A74121209231216737D007C007900B4
:102FC3007415120B38AA82AB83121463800B12316F
:102FD30043120B38E8F0A3E9F07407120B38E50845
:102FE300F01241CBC0E07409120B38D0E0F0740A40
:102FF300120B387401F0740512092312195B741152
:10300300120B38E06003023103740D120B381257B0
:10301300EF8E828F83A3A3A3A3F0740D120B381238
:103023004F08E50AF0A3E50BF07403120B38E0C078
:10303300E0124E96D0E0125EAC60119013F1E0C046
:10304300E0740D120B38124EE3D0E0F0740D120B46
:103053003812440C850C82850D83A3A3A3A3A3126A
:10306300313C241C1265171271E612313E125E5E6A
:1030730039126C61C0E0124E7DD0E0126D26C0E0C3
:10308300740D120B381249C3D0E0126A27C0E074E2
:103093000D120B381249B9D0E0F0740D120B38122F
:1030A300314E12313C242A126517850E82850F8317
:1030B300A3A3A3A3A3A3A3A3E01265101241BAC0C1
:1030C300E01249A5D0E0F0740D120B381250CD85F3
:1030D3000E82850F83126D3C2428F582E43B127126
:1030E300CA1241C3126D4D120869126211EA1264C9
:1030F300A93B127F0A120880740512092312196171
:103103008E828F83A3A3A3A3A3E0D2E0F074111252
:103113000B38E06003022EC27401120B38E0140274
:103123002ECE7900AA0CAB0D121817741F026DF284
:10313300E075F007A4F8A9F022A3A31250D1E82266
:103143008E828F83A3124410740522E0123156A39A
:10315300A3A322F8A3E0F9850E82850F83A322742B
:10316300F01203C474E8120949E9851882851983AA
:10317300F08A0E8B0F8A828B83A3A3A3A3A3A3A39B
:10318300A3E0F912176F8A088B09EA4B7003023226
:103193003FE50E1256621241F2123BD18518828529
:1031A3001983E060030232427C04850E82850F831B
:1031B300A3A3A3A3A3A3A3A3E0F9121775EE4F60E0
:1031C3007B8E828F83A3A3A3A312440C7407120BD9
:1031D3003812664E12440C7409120B38124F6AC02F
:1031E300E07411120B38D0E0126A05A3A3A3A3A3C2
:1031F300A3A312440C740F120B381271CC74121265
:103203000B38E4126DE8C8241FF582E438F5831205
:1032130061D3C413135403FC70027C048E828F8326
:10322300E0F9780812086D742059FD744059F97457
:103233000312092312180B7402120880026DF07C2A
:1032430008850E82850F83A3A3A3A3A3A3A3A3E04F
:10325300F91217758B0BEA4B70030231C0EE4F6006
:10326300DB851882851983E0F50C780C12087185CB
:103273000882850983A3A3A3A3A3A3A3E0F50C78E2
:103283000C1208718A828B83A3A3A3E0FB8A828535
:103293000B83127A298A82850B83E0FA8E828F83CD
:1032A300A3A3E0F912203374021208800231C4741C
:1032B300F71203C474FA120949E9FE780179017F10
:1032C30000800379000F125249E0FCEFC39C5026A3
:1032D300EF75F007A4FC85F008AD08EA2CFCEB3D84
:1032E300FD124835E0A2E050DA540C60D6E0A2E2C9
:1032F30050D3780080CF8A828B83A3A3A3A3A3A3F5
:10330300E0703DE9A2E0400574016E70338A828B60
:1033130083A3A3A3A3A3A37401123606E0C0E0749E
:1033230003120B38D0E0124894E0C0E07404120B8F
:1033330038D0E0F07405120B38E812617212199755
:103343007406024AB2C082C0837901121817025F61
:10335300AE74F41203C4EA4B9015C96019E4F08A01
:10336300088B09F50AF50B78081208657A0212280A
:103373007A120880800A7401F07A027B00122867AF
:1033830002296274F01203C474F31209497403121C
:103393000B38E4F0A3F090135D123BD17401120BD0
:1033A30038E4F0A3124F3F04F090139BE0A2E350E4
:1033B300030234791235FA7409120B38120AFD74B8
:1033C30009120B387808120AE190135F7808120982
:1033D300037405120B387808120AC31234FD7405FE
:1033E300120B387808120AA350077A017B000234C3
:1033F300EA7405120B38780C120AE19015B9E0F55E
:1034030009780C7908120355A80CA90D9015BAE098
:10341300C398E4995003E08001E8851882851983F5
:10342300F07409120B387808120AE1C008C009C009
:103433000AC00B7405120B38780C120AE11234FD22
:10344300780C7908120355E4F50AF50BD00FD00E6A
:10345300D00DD00C780C79081209B290135F780C58
:10346300120AC380111234EF1271CCEEFAEFFB1281
:103473001073AE08AF09EE4F60658E828F83122AF8
:10348300EDC398502DEE2403F8E43FF9E0FA888267
:103493008983E0C39AF060237403120B38124576D4
:1034A3007401120B38EEF0A3EF126669FEA3E0FF7E
:1034B30080C48E828F83A3A3A3E4F08E828F8312B2
:1034C3007EC37401120B381256DF8E828F83A3A33F
:1034D300A3A36091126642120B381234F6808974EA
:1034E30003120B381250CD740D026DF2124410907A
:1034F300135D221261FEA3A3A3229015B8127ECB03
:10350300E4F50AF50B2274F01203C48A088B0989C7
:103513000A7800790090135D123BD1FBEE4B601EDD
:10352300088E828F83A3A3A3A3125097601008E889
:103533007001098E828F83123BCDEA4F70E39015A1
:10354300BB1250CDC3E89AE99B40030235ED7A06DE
:103553001235F0A80CA90DEA4970030235ED8A82F1
:103563008B83E508F0A3E50912360FE50AF0901501
:10357300BA125251123606A3E4F0A3F090135D126F
:103583005097600D8E828F83A3A3A3A31271CC8067
:103593001790135D1271CC90139BE0A2E3400912C4
:1035A30035FA90135F120AFD90139BE0A2E3503AA1
:1035B3007A087B00901342E0F9121133EA4B4C4D29
:1035C30070289015B8E0F508A3E085080CF50DE424
:1035D300F50EF50F780C1208657A087B00901342FC
:1035E300E0F91211277404120880026DF57B0012B2
:1035F300106D8A0C8B0D2212113FEAF8EBF9ECFAED
:10360300EDFB2212360A2212360FA322F08A828B96
:1036130083A3A322C082C083E99015CAF0901357F5
:10362300744DF0A37418F0901359745FF0A37418D9
:10363300F090135B7471F0A37418F0025FAE74F72B
:103643001203C4EAFEEBFF8908EA4F7003120C1D54
:103653009013631256DF7008901363801E12440C9C
:1036630088828983A3A3A3A3A3A3A3A3A312435BD6
:10367300A3A3A3A3A3A3A3A3A370E2EEF0A3EF12B8
:103683003694A3A3A3E4F0A3123694E508F0024A08
:10369300B51236982212369C22F08E828F83A3A312
:1036A300A3A3A3A32274F71203C4E9FD90136380B9
:1036B3000D88828983A3A3A3A3A3A3A3A3A31256C1
:1036C300DF603488828983A3A3A3A3A3A3A3E06DAC
:1036D30070DF88828983A3A3A3A3E06A7003A3E0B6
:1036E3006B70CE88828983A3A3A3A3A3A3E06C708A
:1036F300C0E8FAE9FB80047A007B00024AB574F75C
:103703001203C4901363123BD1901363126D40688C
:103713007002EB697017EE240912440690136312CA
:1037230071CC901363123BD18030123BC4EE4F60D7
:10373300298E828F83A3A3A3A3A3126D3C68700277
:10374300EB6970E68A828B83A3A3A3A3A3A3A3A39A
:10375300A31249AFA3A3A31271CC121073EEFAEF15
:10376300FB024AB574F01203C474F91209498A0CB6
:103773008B0D8A828B83A3A3A3A3A3A3A3A3E0603C
:103783002F6401602B8A828B83126A0F7022850C4F
:1037930082850D83A3A3A3A3A3A3A3A3E0640370C0
:1037A30014740212092BAA0CAB0D1218EFE9701650
:1037B3007902023969850C82850D8312440C7402E7
:1037C300120B381271CCE50C24111271DE24341261
:1037D300612C12106D8A088B09AE08AF09EA4F708D
:1037E300030239677C347D007900120FC5AA18AB38
:1037F30019850C82850D83A3A3A3A3A3A3A3A3A3CA
:10380300E0F9121FF1851882851983E0C0E01239AF
:103813006ED0E0F0EE242EF50EE43FF50F740112A6
:103823000B38E0850E82850F83F07901EEFAEFFB0A
:1038330012183B850C08850D09750A0078081208D3
:10384300697C1E7D00EE240B126CF8120880EE24B6
:1038530032FAE43FFBEE2434F8E43FF98A828B83A7
:103863001271CCE50C2411FCE4350DFD8C82F5833B
:10387300124F0324301271C6E50C12484712721F0F
:10388300127F001208698C828D83127A2A8A828BB6
:1038930083127F0C1208807402120B3812441AA38D
:1038A300A3A3A3E8F0A3E9125EA68E828F83A3A34A
:1038B300A3A3A3A3A3125EA604123D0E242CF8E433
:1038C3003FF9E8FA7508FF750900850E82850F83B5
:1038D300E078081209ED8A828983E508F0EE242B4B
:1038E300123CE57404120B38E4F0E50C2415127154
:1038F300DEA2E074055007120B3874018004120B2A
:1039030038E4F0EE2429F508E43FF50974041209BC
:1039130023122009E924FE850882850983F0EE2419
:103923003012565412397612027CE88E828F83A3AA
:10393300A3A3A3A3A3A3A3F08C828D83123976122E
:10394300027CEA4B600F8E828F83A3A3A3A3A3A35E
:10395300A3A3E004F0EE2420125B22440812422FBA
:103963007900800279107407026DF2EE1264A93FA8
:10397300F58322123F41E0FA7B002274F41203C460
:10398300EAFEEBFF1241B212651D9015AEE0F8EEB0
:10399300242D125B22C3984003023AE7123AEF70D8
:1039A30012EE242D125B220412528DC0E0123CDB76
:1039B300D0E0F0123AF7FA7900800109EE242E12D2
:1039C3005B22F8E9C3985026750801750900E97868
:1039D300081209ED123AEF550860E0E92AFA750872
:1039E30001750900E978081209EDE04508F0EE24B5
:1039F30029125B22FBEE2430F582E43FF583EA8B48
:103A0300F0A4F8ACF0E42CF9E098F8A3E099F9EB12
:103A1300FCC3E89CE99400EE40312429125B22F8B0
:103A2300123AEF602C12396E123B06A3E4F0EA70EF
:103A330047EE2420125B224420124F6EC0E0125244
:103A43007BD0E0125285FCA3E08055123CDC74FF6E
:103A5300F0901391E0FC9015B1123AFDADF075F0C2
:103A630064A4FCABF075F064EDA42BFD8E828F8310
:103A7300A3A3ECF0A3ED80B5EE2420125B2254DF68
:103A8300125276EAF0FCEE2429F582E43FF5831224
:103A93003AFDFCADF0EE2432125B222CFCA3E03D98
:103AA300FD126CF0ECF0A3ED126791C0E0EE24255B
:103AB300F582E43FF583D0E0F0EE241CF582E43F89
:103AC300F583E8124F3A9013651256DF600AEA1243
:103AD300630612205CE97011EE240BFAE43FFB123B
:103AE30018C580057BE9123CF9022962EE242B12EA
:103AF3005BA3F422EE125237E022E0F508EC8508CE
:103B0300F0A422125B49A3A3F02274F41203C4901D
:103B13001363123BD112113F8A0A8B0B78FF79FF93
:103B23008020E0C39AFCA3E09BFDC3EC98ED995081
:103B33000E8E828F83A3A3E0C39AF8A3E09BF912AE
:103B43003BC4EE4F60538E828F831250CDE50AC380
:103B53009AFAE50B9BFB127A24C3EA9CEB9D8E82B7
:103B63008F83A3A340BCA3A3A3A3E0640270171293
:103B730041D460091241DD1250CD120FDDEEFAEF90
:103B8300FB1218478007EEFAEFFB1218537A017BFA
:103B9300009015CA125692802574FF68700374FF53
:103BA30069601B88088909E4F50AF50B780812088F
:103BB300657A017B009015CA12287F1208800229BA
:103BC300628E828F83A3A3A3A3A3A3A3A3A3E0FED5
:103BD300A3E0FF2274F31203C48A088B09ECFAED05
:103BE300FB890C7C01E5082411123CEF1218418A71
:103BF3000A8B0BAE0AAF0BEA4F7003023CD6E50CFF
:103C03006003023CD6E5082413125B3BF8EA123A40
:103C1300F8686003023CD6EA125240125B5C8E8263
:103C23008B83A3A3A3A3A3A3A3A3E0FAE89AE99492
:103C330000C365D0334012E5082414125B3BF470D3
:103C4300087B00123CF9023CD6E5082414125B3BC6
:103C5300F47049EE242BF8E43FF9E8FAE9FBEE248B
:103C63002EF8E43FF9E8FCE97508FF75090088823E
:103C7300F583E078081209ED8A828B83E508F0EE7C
:103C8300242C123CE58C828983E0F8123AF728F061
:103C9300EE242DF582E43FF583E48021E508241426
:103CA300F8E43509F9E0C0E0EE242CF582E43FF5B1
:103CB30083D0E0126101C0E0123CDBD0E0123D0E84
:103CC30012396F125B44A3124F3A7A01FB9015CA63
:103CD3001256927F05020629EE242BF582E43FF566
:103CE3008322F582E43FF583E508F022F582E4358B
:103CF30009F583E0F922EE2422125BA3FA123F1B9B
:103D0300126ABEEEFAEFFB12184722F012113F8E31
:103D1300828F83EAF0A3EBF0EE2274F01203C474F3
:103D2300FB1209497403120B38124F34E9851882C8
:103D3300851983F08A0A8B0B8A828B83A3A3E0F90C
:103D43001220158A0E8B0FEA4B70077A007B000254
:103D53003F167A1212741C7003023F127C127D000C
:103D63007900120FC57401120923850A82850B831A
:103D7300A3A3E0F9121FF1E508240FFEE43509FFC0
:103D83007402120B38125B49F07902AA08AB0912CC
:103D9300183B7403120B381264F1123F39123F516E
:103DA3002411123F25850882850983A3A3A3A3A316
:103DB300A3A3F0750CFF750D008E828F83E0780C42
:103DC3001209EDE508240C126762E50C126DD9F8AF
:103DD300A3126307E0C0E0E508240B126762D0E09A
:103DE300F0E50A123F2F123F28FAE508240D126767
:103DF30062EAF0E50A124847123F288AF0A4A9F0C4
:103E03002427FAE439FB120FD78A0C8B0DAE0CAFC3
:103E13000DE508123F2F350912651BEA4F700302A7
:103E23003F058A828B83741A124F3A8A828B83A34B
:103E3300A3F0A3123F65125266126648120B3812A2
:103E43007A2AEA126F86121FF7850A82850B83A3EB
:103E5300A3A3E0C0E0125B2FD0E0F09013AE124FAB
:103E6300032410123F4B124816350BF583124F03F0
:103E7300126208E8F0A3E9123F65124EFF126C4389
:103E8300E8F0A3E9123F57E0C0E0123F1BD0E0F097
:103E9300E50A240C123F25C0E0EE1248163FF583D5
:103EA300D0E0F07415120B38126C50C0E0126F7D25
:103EB300D0E0126783C0E0126C36D0E012489CC099
:103EC300E0124EA0D0E01256E4C0E0124E87D0E0DC
:103ED300F07417120B38120B09EE241AF582E43F23
:103EE300F583120AFDEE2427F8E43FF9EE242212AB
:103EF3003F4B1260F3123F28C0E0126D12D0E0F086
:103F0300800DAA08AB09121847750800750900AAA5
:103F130008AB097405026DF2EE2414F582E43FF553
:103F23008322F582E4350BF583E022EA123F332244
:103F33002410F582E422123F41A3A3A3A322124437
:103F43001485088285098322F582E43FF583124FA5
:103F530064E50A22123F5B22F0850A82850B83A364
:103F6300A322123F5BA3A3A3A32274F01203C4747E
:103F7300FE120949851882851983124F348A0E8BE4
:103F83000F890DC200EA1241E9E0F50C90136512A6
:103F930056DF600EA90C12630712205CE96003026E
:103FA30041AD7C0212420E1241BAF91218418A083D
:103FB3008B09AE08AF09EA4F7055850E82850F83D2
:103FC300A3E0A2E040030241AD7414120B381206C1
:103FD300F47416120B381206F8A90D7406120B3876
:103FE300127A2AAA0EAB0F12186574061208808A79
:103FF300088B09AE08AF09EA4F70030241AD8A820C
:104003008B83A3A3A3A3A3A3A3A3E50C12422FAA69
:104013000C8E828F83A3A3A3A3A3A3A3A3E024FF54
:10402300F8E434FFF9E86A497002D2001241D4700F
:1040330003024169850E82850F83A3E0A2E050034A
:10404300750C0012421CE50C98E499C365D033400B
:104053001CE0F8EE240E125B222CF07508FF7509A4
:1040630000EC78081209EDEE240C123CE51241C372
:10407300126D4D120869126211EE240D125B22F5C6
:1040830008E50C8508F0A4FAABF0124EC22422F521
:1040930082E438F583E02AFAA3E03BFB1271F312C2
:1040A30008807508011241F778081209ED125B1FA9
:1040B3004508F0A200506BEE240CFAE43FFB7508B0
:1040C300FF1241F70478081209ED8A828B83E045D9
:1040D30008124F1AF8E50CF508E88508F0A4F8A9CA
:1040E300F01241CBFCE82CFCE439FD124EC2242033
:1040F300F582E438F583ECF0A3ED125FA4F47022AB
:10410300EE240BF508E43FF5091241DD1250CD858D
:104113000882850983126DD385088285098374FF1C
:1041230080431241B212651D901391E0FA9015B1CC
:10413300124205FAABF09015AE124205F8ACF085C9
:1041430008F0EBA42CF9EA28F8EB39F9E875F064E8
:10415300A4F8AAF075F064E9A42AF98E828F83A3E8
:10416300A3E8F0A3E9F0AA0C12421C126EC7E86A96
:104173007001E9600CEE240C123AF26004A20050C4
:1041830029EE240E125B22C0E0E50E1241E9D0E0D5
:10419300F0125B1FC0E0E50E24141241EFD0E0F0F3
:1041A300AC0EAD0F12420E1218B37402026DF2126E
:1041B300113F8E828F8322E50E24111241EFE022FC
:1041C300E50E240E1241EF22E50E24101241EFE01A
:1041D30022EE125C78125BA6F4221241E122EE1267
:1041E3003F333FF5832224131241EF22F582E43556
:1041F3000FF58322750900125BA0F5F0E50C84E549
:10420300F022E0F508EA8508F0A4228518828519D2
:104213008312624EFAA3E0FB22EE240E125BA3F894
:10422300125BA0FCE82CF8E43400F922F07A017B5D
:10423300009015CAE0F912101922C082C0839015AC
:10424300CA126DD3025FAE74F41203C4EAFEEBFF2D
:104253005480704BEAA2E05056121859EE6401FAEA
:10426300EF80498A828B83E06401702CEA126760D5
:104273001206F4EA1242B912086DEA2412123CEF54
:10428300EA2402FCE43509FDEA2419FAE43509FBC2
:1042930012186B7406120880AA08AB09120FDD907E
:1042A30015CA1242C570BCEEFAEF6480FB80047A33
:1042B300007B00022962240FF50AE43509F50B7827
:1042C3000A22E0F9120FEF8A088B09EA4B2274F2F3
:1042D3001203C4890B8A088B098A828B831250CDFF
:1042E300121883EA4B600479B8806A12188FE9F8D0
:1042F300902641E493F9E8C399400479B280567A51
:10430300151235F0AE0CAF0DEA4F700479108045ED
:104313008A828B83E4F0A312360FE50BF0750A0053
:1043230078081208697C127D00EA2403126CF812E3
:1043330008809013671256DF7008901367800C1281
:10434300440C8882898312435B70F4EEF0A3EFF090
:104353001218A179000251B91250D1EA4B8882890F
:104363008322C082C08390136780048C828D831262
:104373007A2AEC4D60288C828D83A3A3E0696005C3
:1043830074FF6970E68C828D83A3A3A3E06A700334
:10439300A3E06B70D6EC2403FAE43DFB80047A00BF
:1043A3007B00025FAE74F71203C4E9FD74FE6D7007
:1043B300047C0180027C0090136780096D70027C8D
:1043C30001888289831256DF601F88828983A3A3B1
:1043D300A3E06A7003A3E06B70E7ECA2E088828934
:1043E30083A3A3E050D6F9800279FE024AB5EEF921
:1043F300800CA3A3127ECBEE2274021208807F02EC
:10440300020629F582E43FF5831244102212441474
:1044130022E0F8A3E0F92212441E221244148E82F1
:104423008F83221208807F03020629C082C083790A
:1044330000901367800109E0FAA3E08A82F583E51F
:1044430082458370F1025FAE74F61203C4E4F5088B
:10445300F509780812086D902641E49375F013A4CA
:10446300A9F012456B12722A120880E9FE74096ED4
:10447300700312189B0243F174F61203C474FE1204
:104483000949851882851983E4F0A3F0A818A919AE
:1044930088088909780812086D750802750900787B
:1044A3000812086D126E921208800243FC74F51212
:1044B30003C474EB120949851882851983E4F0A3B8
:1044C300F090136780748E828F83A3A3E0C0E0749F
:1044D30002120B38D0E0125B90A982AA8389088A62
:1044E30009750A0078081208697C127D00740612A7
:1044F3000B381271EF120880740212091B880889A5
:1045030009780812086D75081375090078081208F0
:104513006D7404120B3812568275F013A4F8AAF0C6
:1045230075F013E9124567126E9A12088085188296
:104533008519831245768E828F83123BD1EE4F709D
:1045430085A818A91988088909780812086D7508BB
:1045530002750900780812086D126E9212088074B1
:1045630015024426A42AF9E82402FCE439FD7A4220
:104573007B0022E02401F0A3E03400F02274F41263
:1045830003C474EB1209497E007F00A818A9198897
:10459300088909780812086D7508028E09780812CF
:1045A300086D7C007D007A42127236120880E97031
:1045B3006C8E088056740212091B880A890B780ACC
:1045C30012086D750A13750B00780A12086DE50859
:1045D30075F013A4F8AAF075F013E50912456712F4
:1045E3007238120880E9701B7403120B38AA82AB6D
:1045F300837402120B38E0F912187DE970050EEE90
:1046030070010F0508E508700205098518828519F0
:104613008312440CC3E50898E509994098EEFAEF34
:10462300FB741502295F74F61203C48C828D83A375
:10463300A3124882F0EA1264AF3BF583E0C0E012B4
:10464300483FD0E0F0EA241DF582E43B12440A120D
:10465300482312487DF0A3F0EA241FF582E43BF5DA
:1046630083123BD1EC1248163DF583EEF0A3EFF035
:1046730012481C3BF58312484DA3A3A3A3A3A3EEA7
:10468300F0A3EF126101FE8C828D8312488C7403B8
:104693005EFEC394034003024809EE600874026E91
:1046A300600302472E8C828D83E0540CFE740C6EE3
:1046B300700302476DE0A2E4400D88828983E08C99
:1046C300828D83A31248A274086E600302476D12A1
:1046D300482D7401F08A828B83A3A3A3A3A3125B47
:1046E3005670148C828D83E0440C124894A3A31259
:1046F300484DEEF0A3EFF08C828D83E0A2E4402BD3
:10470300888212485B124870500109F58212485B97
:10471300A3A3A3A3A3A3F0A3EF12489C8C828D832E
:10472300A3A3A3F0E82403F850010988828983E056
:10473300C0E0EC2411F582E43DF583D0E012488C0F
:104743008C828D83E0A2E7507588828983E0FE8C9A
:10475300828D831248A274FC5E700C8C828D83A3BD
:10476300E054036403701E02480912482DE4F074F8
:104773000C6E60030246D88882124861124870505A
:1047830001090246FA8C828D83A3E05403603288C8
:10479300828983E0C0E0EC1248473DF583D0E01204
:1047A30048A38C828D83E054036402701488828949
:1047B30083E0C0E0124835D0E01248A38003A3E4AD
:1047C300F0EC12564E3D1271CAEC2410FEE43DFF8C
:1047D300EA241DF582E43BF583E0F5088E828F839E
:1047E300E0C3982508F508F0EA2417F8E43BF988B4
:1047F30082F583E0C39508C0E0124823D0E012613C
:1048030001C39508500A124823E4F012483FE4F02C
:104813000244012415F582E422EA240DF582E42200
:10482300EC240DF582E43DF58322EC1258073DF5A7
:104833008322EC2414F582E43DF58322EC123F330A
:104843003DF583222413F582E422E0FEA3E0FF8CEE
:10485300828D83A3A3A3A322124861A3A3228983E6
:10486300E0F508A3E0FFE5088C828D8322A3A3A3D0
:10487300A3F0A3EFF0E82402F822124882A322E473
:10488300F08C828D83A3A3A3221248AAA882A983B2
:104893002212360AA3A3A3A3221248AAA3E022A3A7
:1048A3001248AA08A9832212610AA32274F41203EC
:1048B300C474F31209498A0A8B0BECFEEDFF8C8258
:1048C300F583E0540CF508E0A2E75006E508D2E7CB
:1048D300F508E508D2E1F508125B567006E508D243
:1048E300E4F508E0A2E55006E508D2E5F5087C0802
:1048F3007D007900AA18AB19120FC57402120B3888
:10490300E5081271D0C0E07403120B38D0E0124FE7
:104913003FE50AF0A3E50BF07405120B38126A2C7D
:10492300120B38E070777408120B38124EC5126000
:10493300F338126A47C0E07408120B381249C3D027
:10494300E0126A27C0E07408120B381249B9D0E0AC
:10495300F07408120B381249AFE0124EED124F6E8D
:10496300126510EE2411125B22C0E01249A5D0E0BB
:10497300F0EE2414125B22C0E07408120B38124EBE
:10498300C52435F582E438F583D0E0124F12C0E038
:104993007408120B38124EC9D0E012677A740D02F4
:1049A300295FE82432F582E439F5832212441EA3F9
:1049B300A3A3A3A3A322124ED9126C2638F58322F4
:1049C300124ED92426F582E438F5832274F71203B4
:1049D300C47E008A828B83A3A3A3A3A3A3A3A3A3BD
:1049E300E064046003024A911257FFE06003024A45
:1049F300911256613B1256DD7003024A91888289F7
:104A030083E054036003024A91E812580739F5839F
:104A1300E0FA8C828D83A3A3E0FBA3E0CB2411F502
:104A230082E43BF583E06A706588828983A3A3A34C
:104A3300A3A3A3A3A3A3124A95E06A7003A3E06B05
:104A4300704C88828983A3A3124AA1E0FFA3E0CF1D
:104A53002406125B226A7003A3E06B70318882899B
:104A630083A3A3E0F88C828D83A3A3E0F9A3E0F5ED
:104A7300838982A3A3E06860138C828D83A3A3A39D
:104A8300E0F5838982E0540C640470027E01EEF940
:104A93008020124A99221250D58C828D8322A3A39F
:104AA300124A99A3A322740C120B38E0F9740D1265
:104AB30008807F0102062974F61203C474FC1209EC
:104AC30049EAFEEBFFECFAEDFB8C82F583A3E0549D
:104AD3000360169013591256DF60597900EEFCEF0C
:104AE300FD12630712205C804B851882851983EEC3
:104AF300F0A3EFF07402120B38124F34AC18AD1957
:104B03007AB97B18121AE18A088B09A808A909EA5D
:104B13004960218A828B83A3A3A3A3A3A3A3A3A3F3
:104B23007406F07A0088828B83124EC51264D0E03B
:104B3300F9121A3F74040243FE74F21203C474F3AD
:104B4300120949EAFEEBFF8A82F583A3A3A3A3A379
:104B5300A3A3A3A3A3E0F50A9015C9E0700579BA4E
:104B6300024E7A750801750900750C00750D007CFD
:104B7300087D007900AA18AB19120FC57405120B32
:104B8300387401124F47540460127402120B38E058
:104B9300D2E6124F4754087003750803E0541060BF
:104BA3000674404508F508E0540860227402120BAD
:104BB30038E044C0124F475420600A7403120B3884
:104BC300E0D2E080087403120B38E0D2E1F0EE2467
:104BD30015125B22124EAA700374016970067408E1
:104BE3004508F5088E828F83A3A3A3A3A3A3A3A33E
:104BF300E07016121B3B85188285198312651D749C
:104C030002120B38E0D2E28030640F70107402128B
:104C13000B38124F4F74044508F508807F8E828F3E
:104C230083A3A3A3A3A3A3A3A3E064028E828F837E
:104C3300700A127203E8F0A3E9F08060A3A3A3A3B0
:104C4300A3A3A3A3E06403700DAC18AD19EEFAEFB0
:104C5300FB1218EF80468E828F83A3A3A3A3A3A383
:104C6300A3A3E0640170359013F1E06010740212A5
:104C73000B38124F4F750910750AFF801874021212
:104C83000B38E0440C124F3F74FDF0A374FFF07433
:104C9300044508F5088E828F83122872EE241512BC
:104CA3005B22A2E0503F7402120B38E0540C701BDD
:104CB3008E828F831250CD12152FE9700579BB02B6
:104CC3004E7A7402120B38E0D2E5F0EE2415125B33
:104CD30022A2E050107402120B38E0540C640470EA
:104CE30004E0D2E5F0EE2411125B22C0E07404125A
:104CF3000B38D0E0126A2E120B38E06003024E73B9
:104D03007408120B38124F08E508F0A3E509F012F6
:104D13004EA0E0C0E0124E96D0E0F0124E87E0C005
:104D2300E07408120B38124EC512484738F583D089
:104D3300E0124F6E640170119013F1E0C0E074084B
:104D4300120B38124EE3D0E0F07408120B38124FF6
:104D530003124E91FAE8241CF582E439F583EA1232
:104D63004F3AEE2415FAE43FFB8A82F583127A2A3E
:104D7300E8125E5E39F583124F34EE241C125B2277
:104D8300C0E0124E7DD0E0125FA4124EAA700374ED
:104D9300016970137408120B381257EFFAEE241DD1
:104DA300125B22F912177B8E828F83A3A3A3A3A383
:104DB300A3A3A3A3E0C0E07408120B381249C3D025
:104DC300E0F07408120B381249B9E50AF0740812BE
:104DD3000B381256822428F582E439F583E50CF06A
:104DE300A3E50D124F1A124EED125B9B126510EEE6
:104DF300124E91C0E0E82433F582E439F583D0E024
:104E0300F0EE241B125B22C0E07408120B38124E22
:104E1300C9D0E0F0EE241A125B22C0E07408120B32
:104E230038124EC52432F582E438F583D0E0124FB0
:104E330012124EB6120869126C2C127A2A740B12D3
:104E43000B38124EC5242F127F06120880EE24154C
:104E5300125B225440601290137D1256DF600AAA3F
:104E630018AB1912630712205CAA18AB1912196147
:104E7300740C120B38E0F90251B4E82420F582E4F3
:104E830039F58322EE2419F582E43FF58322126C6F
:104E93003BE022E82412F582E439F58322EE24185C
:104EA300F582E43FF583225480F8A3E05401F974BA
:104EB300806822F508A3E0F509750A007808221234
:104EC30041E1124ED922124ED92434F582E438F549
:104ED3008322A3A3A3A3124EDD22E0F8A3E0C822FA
:104EE300124ED912481638F58322FAA3E0FBE824C0
:104EF3002AF582E439F583EAF0A3EB22A3A3A3A363
:104F0300124410EE2212568612566639F58322F0A9
:104F1300EE2413125BA322F0EE240D125BA322E016
:104F2300FC8A828B83E02CFCA3E03400FD8A828B15
:104F330083ECF0A3EDF022F0A3E4F022F0851882D5
:104F430085198322F0EE2415125BA322E0D2E3F04D
:104F5300124F57228E828F8312441485188285192B
:104F630083E8F0A3E9F022E8F0A3E9126663E02204
:104F730074F71203C48A828B83A3E0640170047EF6
:104F83006380027E648A828B83E060087905124F16
:104F9300A724F3FE901399E06007F9124FA724F2B8
:104FA300FE024A91121A09E9F8EEC3982274F61226
:104FB30003C474FE12094985188285198312651D7D
:104FC300E9FEECFAEDFB9004301256DF6032A818CC
:104FD300A91988088909780812086D7D01740E12D1
:104FE3000B38E0FCEEF99004301264F112205C748B
:104FF30002120880EA4B60047900800679B28002CD
:1050030079B60243FC74F71203C4E9FE90134F12FE
:1050130056DF601F7409120B38E0F5087808120890
:1050230071EEF990134F1264F112205C74011208AF
:1050330080800279B6024AB574F71203C48908EC7A
:10504300FEEDFF79B5E508245E602014600624F8C0
:105053006034803D900432125097603512724712CB
:10506300205C8E828F8312651D8024901351127AE7
:105073002AEC4D601CEEFCEFFD9013511264F1120B
:10508300205CE9F9800B90134D12509D1211577952
:1050930000024AB51250D1EA4B22127A2EEEFAEFF1
:1050A300FB2274F71203C4E9FE79B574AB6E700B7F
:1050B30090134D1250CD1211577900024AB58E82CA
:1050C3008F83A3A3A3A3A3A3A3A31250D1221250FC
:1050D300D522E0FAA3E0FB2274F11203C4EAFEEB4B
:1050E300FF8C0A8D0B7508019013A1E06E7003A36A
:1050F300E06F700C1251A8AA0AAB0B121157805E15
:10510300121B41EE6A7002EF6B7009AA0AAB0B1215
:105113001B47804AAC0AAD0BEEFAEFFB12164FE9C0
:10512300F5089015C0E07036121F67E97030E50886
:10513300702C901371E06E7003A3E06F7020EE4F3C
:10514300601C750C69750D13750E00780C120869D7
:105153007C087D00AA0AAB0B1271F3120880A90820
:10516300027B2674F21203C4EAFEEBFF8C088D095E
:10517300750A011251A8EEFAEFFB121151E964010D
:1051830070119013A112440C850882850983127152
:10519300CC800EAC08AD09EEFAEFFB121655E9F51B
:1051A3000AA90A8011121B358A0C8B0DAC0CAD0DAC
:1051B30022740D1208807F0602062974F61203C4B6
:1051C300EAFEEBFF7A0D7B0012106DEA4B6062EE94
:1051D3002424126ED0F0EE2425126ED0A312527640
:1051E300126ED6A3A3126C59125251F0EE1252371B
:1051F300125266E8F0A3E912528D12525E1271CC7C
:10520300EE125240126D1CA3A3A3A3F0EE2433129B
:105213005B22C0E0125249D0E0126A4B12525EA3E5
:10522300A3A3E8F0A3E9125285C0E01257FFD0E030
:10523300F0024401242AF582E43FF58322242EF56B
:1052430082E43FF58322EA125C783BF58322125213
:105253005522E08A828B83A3A3A322126D7BA3A38F
:10526300A3A32212526A221244148A828B83A3A319
:10527300A3A322F012527B22EE2426F582E43FF50B
:105283008322F0EE2432125BA322F0EE242C125B75
:10529300A32274F41203C474FE120949ECFEEDFF59
:1052A300EC2416125B2264057010EC2406FCE43F28
:1052B300FD1218E9E97003025341AC18AD19126FDE
:1052C300851215358518828519831256DF606B8E1A
:1052D300828F83E064017058E875F009A4F8AAF09E
:1052E30075F009E9A42AF974C628F8740039F9E8B5
:1052F300FAE9FB8882F5837808120AE1EE1253E398
:10530300120AA34027851882851983124F03125B63
:10531300301253467808120AE190813B7808120A4A
:10532300008A828B837808120AC3800A79A28010CC
:10533300EE240F1271C67900800679A1800279C824
:1053430002295D124F64EE126C472274F21203C4F9
:105353008A0C8B0DECFEEDFFEC125B30E4F0A3F056
:1053630090812B7808120AE1EC1253E31209896049
:1053730067EC240E125B29703478B3901398E070B5
:10538300289013CAE064017020EC2411125B22F907
:105393001219F18B09A909EE1256623F12651BEA35
:1053A3004960047800800278A18808802EE06004B8
:1053B3006402700A1218FBE9F5087007801DE064A7
:1053C300037010EEFCEFFDAA0CAB0D121559E9F5B5
:1053D3000880087508A180037508A3A9080251B9BC
:1053E300126C4778082274F01203C474F512094949
:1053F300EAFEEBFFEA240AFCE43F8C82F583127E8B
:10540300C712566C740312092B8A828B83126311A1
:10541300E970030254D2740112092B740312092395
:105423001215357401120B381256DF70030254D271
:10543300E875F009A4F8AAF075F009E9A42AF9744B
:10544300C228FC740039FDE508240E126762E4F0FB
:1054530004120B3812440CE5081256623509127116
:10546300CA8C828D83120B09E5082412126762121B
:105473000AFD90813B7808120AE18C828D837808BB
:10548300120A5F8C828D83780C120AE1908147782F
:1054930008120AE1780C7908120355E50845094515
:1054A3000A450B702A7401120B3812568275F009E3
:1054B300A4F8AAF075F009E9A42AF974CA28F582B8
:1054C300740039F5837401F07A007B0812568F8ECD
:1054D300828F83A3A3A3A3A3A3A3A3A3A3E02406CD
:1054E300FCA3E03400FD8E828F83126311126A39AC
:1054F300603EEE240A125654124F087468124F3A53
:10550300E812564E39F5837402F0901383120B0997
:105513008C828D8312650A1260F33CF583120AFDB7
:1055230090813B7808120AE19013837808120A5F8E
:105533001256CA705D90134D12567AA3A3A3A3A368
:10554300A3A3A3A3A3126129121151E9701012603E
:10555300E790134D1260F97005126A3960348E8238
:105563008F83A3A3A3A3A3A3A3A3A3A312567A12D4
:1055730050CD12155FE960118E828F83A3A3A3A37D
:10558300A3A31256B6E4F0A3F08E828F8312569C27
:10559300E4F01256CA60030256498E828F83A3A396
:1055A300A3A3A3A3127EC3901398E0600302563E05
:1055B3009013CAE06401600302563E750A3A750B04
:1055C30000780A12086D740212091B880A890B7885
:1055D3000A12086D1274C2120880E9705BE5082490
:1055E3000E12676274011256E4C0E0E5082411123A
:1055F3006762D0E0F0E508240F126762743A124F35
:105603003A90137F120B09E5082412126762120AFB
:10561300FD90813B7808120AE190137F7808120A03
:105623005F90813B7808120AE190137F7808120992
:1056330089700812568B800312566C1256CA700674
:10564300125FEA74A1F0740B026DF2240EF582E48A
:1056530022F8E43FF9E8FCE9FD8882F58322EA12A7
:10566300566622240FF582E422E5081256663509B0
:10567300F583E4F0A3F022127A2E8E828F83221216
:10568300568622124414E8227A007B02901226E006
:10569300F9121019228A828B83A3A3A3A3A3A3A322
:1056A300A3A3A31256AA22124EDD240EF582E438D8
:1056B300F58322A3A3A3A31256BE22124EDD240F09
:1056C300F582E438F583228E828F83A3A3A3A3A359
:1056D300A3124ED5240FF582E438F583125686497A
:1056E300221256E822F0851882851983E02274F687
:1056F3001203C4EAFEEBFF7A237B0012106DEE2443
:105703000AF508E43FF50985088212651B7C237DB1
:10571300007900120FC58508828509831256DF7050
:10572300030257B2EEFAEFFB1219071256CA60745E
:105733008E828F831257E564018E828F83A3A3A386
:10574300A3A3A370071257DB740E80211256DF70D8
:1057530010126A39700B8E828F83A3A3E0A2E050EC
:10576300071257D1740D80051257D17405126A4B75
:105773005403640170071257B97405800B90139991
:10578300E0C0E01257B9D0E01257F4F583888212D3
:105793005B4F850882850983124EC51264AF38F5C5
:1057A30083E9800E8508828509831265948003123C
:1057B30064D7F00244018E828F83A3A3A3A3A3A380
:1057C300A3A3A3A31257CB22E01264F6A3228E82D3
:1057D3008F83A3A3A3A3A3A3124ED51264B538F555
:1057E3008322A3A3A3A3A3A3A3A3A3A31256AAE0C1
:1057F300221257F822126F9AF8A3E022EA125807EE
:105803003BF58322240CF582E42274F11203C47461
:10581300E41209498A0C8B0D8C088D097A237B00CD
:1058230012106D8A0A8B0BAE0AAF0BEA4F7003029C
:105833005B0A1264BBE5082415125B3B687003A383
:10584300E0698E828F837004740280027401F0E534
:1058530008240DF8E43509F98882F583E0FAC3E4F6
:105863009AFA95E0FB125B372AFAA3E03BFB8E82A0
:105873008F83A3A3A3A31261108E828F83A3A3F0AC
:10588300EE2420F582E43FF583E4F0EE2421F58253
:10589300E43FF583E4F0EEFAEFFB1219BB850882CF
:1058A300850983125B5670098E828F83A3740580EA
:1058B30006901399125B44F0EE2417F50AE43FF5C2
:1058C3000B8E828F83125B4FE9850A82850B83F0EF
:1058D300EE2416F8E43FF9E508240EFAE43509FB53
:1058E30088828983124F22E5082410FAE43509FBE4
:1058F300850A82850B83E0FC88828983E0F88A82AB
:105903008B83E0C398C39CF8125B90F0EEFCEFFD31
:10591300AA0CAB0D121901E9F50B8E828F83E0649B
:105923000270061260E7125B14E50B6003025B0171
:10593300750C00750D009015C0E064016005E0640E
:1059430002703F125B266008EE2421125B2970323D
:105953008E828F83A3A3A31264DD125B5CEE2416F5
:10596300125B22125B85FAE439FB1235F2EA4B60D3
:1059730011126D45120869125B6AAA0C1271F312B7
:105983000880EEFAEFFB1219C7E9F50B9015C0E09A
:1059930064016008E064026003025AF4E9700302E0
:1059A3005AF4E50C450D7003025B018003850E0B71
:1059B300125B26600BEE2421125B296003025AFA64
:1059C300850B0E850C08850D09750A0078081208E9
:1059D30069125B6A8E828F83A3A3A3A3127F0C1227
:1059E3000880EE2420125B22600D125B2F74681274
:1059F3004F3AEE24208015EE2421125B226015120B
:105A03005B2F7403F0A37401F0EE2421F582E43FCD
:105A1300F583E4F0EEFAEFFB1219C7E9F50B70908A
:105A23007C137D0079007409120923120FC5741ABF
:105A3300120B387401125B9B64687002A3E0704F11
:105A43008E828F831256B6E0640560030259B07CE0
:105A53000879FF8E828F83A3A3A3A3E0242A126174
:105A63002C12104FE970030259B07C087D0079FFB6
:105A73007401120923120FC5740112092B7A007BDA
:105A83000079AB1218E37419120B3874FC801512E9
:105A93005B2FE064037004A3E064017008741912BF
:105AA3000B3874FFF0E4F508F509780812086D74F3
:105AB3000212092B7413120B38AA82AB8312661AD3
:105AC300120880851882851983E0602B74091209F6
:105AD3001B88088909780812086D75081375090071
:105AE300780812086D7C007D00126E9A120880807F
:105AF30006E50C450D6007AA0CAB0D121073EEFA08
:105B0300EFFB1210738003750B10A90B741C027B3F
:105B130023EE2406FAE43FFB12115722EE240C1263
:105B23005BA322EE2420125BA3640122EE125666CD
:105B33003FF58322E508240EF582E43509F583E079
