:020000040000FA
:06000000020B1E020220AB
:03002B000208CDFB
:030033000202B90D
:0300530002014F58
:03006B000202424C
:03007B00020283FB
:100083000201B1010100F0FF0700080000FFFF00BB
:10009300000504000000030001FF0020FD0002062C
:1000A300FFFF1E010100F2110000006613000000B3
:1000B300000000000000000000000010484F4D4504
:1000C30020202020202020202020202001074E5502
:1000D3004D42455231010401000000029381031394
:1000E30081010400002E12000000E8030000FFFF5E
:1000F300A2120188130000E803000064006400B842
:1001030001A0BB0D00A0BB0D000202020704010504
:100113001E02051E020A0A010108080103B80B02A8
:10012300803E0102FEFFE8030A050001FFFF020A09
:10013300011401E005030101FF0F69250000000020
:100143003D2400000000FF000000FF00C0E074F148
:1001530012053AA2AFE433F509D2AF85A708AFA1E0
:10016300EF5508FE74105E6006120DCC75A1EF7496
:10017300085E6008120DD275A1F78024EFA2E09209
:10018300F0E508A2E082F05017906198E0F890043F
:10019300A7E0C398A2D265D0335002E8F075A1FE60
:1001A300751A00E509A2E092AF7F02020599C0E04B
:1001B30074F212053AA2AFE433FED2AF9061A4E029
:1001C300F8759B00E59158540860087591F7120E75
:1001D300208023E59158541060087591EF120E2684
:1001E3008014E591A2E092F0E8A2E082F05007E0EB
:1001F300C2E0F0120F7C9061A3E0F8E5E9585404E3
:10020300600E120F5275E9FB906193E0A2E640F293
:10021300751A00EEA2E092AF7F01020599C0E07467
:10022300F212053AA2AFE433FED2AF9061A5E0F833
:10023300E5BF585404600675BFFB120F9480D1C00C
:10024300E074F212053AA2AFE433FED2AFE589A21D
:10025300E1501890046A7401F0900468E06006436A
:100263008C01E48005538CFE7401F0120CD6758961
:1002730000C2C5751A00EEA2E092AF7F0102059994
:10028300C0E074F212053AA2AFE433FED2AFE58ABE
:10029300A2E2501890046B7401F0900469E06006C8
:1002A300438C02E48005538CFD7401F0120CD67567
:1002B3008A00C2EB80BDC0E074F212053AA2AFE43B
:1002C30033FED2AFE58BA2E0500690046C7401F0CC
:1002D300120CD6758B00C2E88099C3E498F8E499B0
:1002E300F912031E8026C3E49AFAE49BFBE920E794
:1002F300E912031EE498F8E499F922C3E498F8E4B8
:1003030099F912031EE498F8E499F9C3E49AFAE41C
:100313009BFB22EB20E7CFE920E7E0B90010BB000D
:1003230008E88AF084F8AAF022E4FBC8FA22EB700A
:10033300227B10C833C8C933C9335007C39AC3DB00
:10034300F280069A50012ADBEAC833F4C8C933F4B1
:10035300C9FA2275F008E4C833C8C933C933C99A46
:10036300C99B5004C92AC93BD5F0ECFBC833F4C878
:10037300E4C9FA22080808EAC0E0EBC0E086F0E727
:10038300A4FA180986F0E7A42AFA180986F0E7A464
:100393002AFA180986F0E7A42AFA1986F0E7A4FBDB
:1003A300E5F02AFA190886F0E7A42BFBE5F03AFA00
:1003B300190886F0E7A42BFBE5F03AFA181809862A
:1003C300F0E7A4C5F02BFBE43AFA1908E7C5F0C639
:1003D300A426F6E5F03BFBE43AFA1886F0E7A4F628
:1003E300E5F00826F6E43B08F6E43A08F6D0E0FB2D
:1003F300D0E0FA22E4CFC0E0E4CEC0E0E4CDC0E038
:10040300E4CCC0E075F020E626F608E633F608E60D
:1004130033F608E633F6181818EC33FCED33FDEE2B
:1004230033FEEF33FFC3EC9709ED9709EE9709EF1E
:1004330097191919400FFFEC97FC09ED97FD09EE89
:1004430097FE191906D5F0BFECF709EDF709EEF79A
:1004530009EFF7191919D0E0FCD0E0FDD0E0FED088
:10046300E0FF222518C582C0E0E51934FFC583C02B
:10047300E0E518C3958224F810AF088583198582B7
:10048300188008858319858218D2AFCEF0A3E520A2
:10049300F0A37808E608F0A3DEFAEFF0A3E58124E1
:1004A300FAF8E608F0A3E608F0A3E608F0A30808C4
:1004B300E608F0A3E608F0A315811581D0E0FED08D
:1004C300E0F8158115811581E8C0E0EEC0E0221245
:1004D3000B98B90003020524E490040178417912D2
:1004E3008002F0A3D8FCD9FA781A9000867A01BA70
:1004F30000028007E493A3F608DAF97A417B1590AA
:10050300008778C979018015E493A3AD82AE838A0D
:10051300828B83F0A3AA82AB838D828E83D8E9D9A1
:10052300E77582FF7583FD74021208AF7582B27599
:10053300832174001208AFC0D02518C582C0E0E53E
:100543001934FFC583C0E0E518C3958224F310AFC7
:10055300088583198582188008858319858218D2B6
:10056300AFC8F0A3E9F0A3EAF0A3EBF0A37908E79F
:1005730009F0A3D8FAECF0A3EDF0A3EEF0A3EFF0AB
:10058300A3D0E0F0A3D0E0F0A3D0E0F0A3E520F007
:10059300A3E5F0F0A322851983851882E0C0E0A3C8
:1005A300E0F9A3E0FAA3E0FBA37808E0F608A3DFF1
:1005B300FAE0FCA3E0FDA3E0FEA3E0FFA3E0C0E0BC
:1005C300A3E0C0E0A3E0F5D0A3E0F520A3E0A3F50A
:1005D300F010AF08858319858218800885831985F3
:1005E3008218D2AFD082D083D0E0F8D0E032E47367
:1005F300FF75F0108E218F2285822685832585182D
:1006030082851983E0CEA3E0CF852682852583EBFF
:10061300C9EAC8EDCBECCAC3E833C8E933C9EA3346
:10062300CAEB33CBC3EA9EF524EB9FF523B3500407
:10063300AB23AA24EC33CCED33CDD5F0DAAE21AF26
:100643002222D083D082ECC0E0EDC0E0E493A3FC8F
:10065300E493A3FDED4C600D12071DEC24FFFCEDAC
:1006630034FFFD80EFE493A3FCE493A3FDED4C6022
:100673000D1207BAEC24FFFCED34FFFD80EFD0E050
:10068300FDD0E0FCE493A3C0E0E493C0E02285192D
:1006930083851882E0A3FEE0A3F5207808E0A3F6A3
:1006A30008DFFAE0A3FFE0A3C0E0E0A3C0E0E0A31B
:1006B300C0E0E0A3C0E0E0A3C0E010AF088582186B
:1006C3008583198008858218858319D2AFD083D09A
:1006D300820208B5D083D082E9C0E0E493A3C38645
:1006E300F0C5F095F0F908E493A386F0C5F095F012
:1006F300700BE493A3C3994005E9048002A3E47556
:10070300F002A42582F582E5F03583F583D0E0F984
:10071300E493A3C0E0E493C0E022C0E0C3E4939673
:10072300087401939618400FE493667008087401E7
:1007330093661870007019A3A3C3E4939608740119
:10074300939618A3A3400DD0E0D0E0D0E002068139
:10075300A3A3A3A3A3A3D0E0227404800474028000
:1007630000CCC0E0EDC0E0E518C39CCCAD1950014E
:100773001D10AF068C188D1980068C188D19D2AFF9
:10078300120831D0E0FDD0E0FC2274028000CCC01E
:10079300E0EDC0E0E518C39CCCAD1950011D10AFCE
:1007A300068C188D1980068C188D19D2AF12080F7C
:1007B300D0E0FDD0E0FC22C0E0C0F088F0E4936616
:1007C30070080874019366187000A8F0A3A3700B57
:1007D300D0F0D0E0D0E0D0E0020681A3A3D0F0D0E7
:1007E300E022D083D082CCC0E0E493A36006120859
:1007F300521470FAE493A3600612099E1470FAD09F
:10080300E0FCE493A3C0E0E493C0E022CAC0E0E4C8
:1008130093A3C582CCC582C583CDC583F0A3C5820E
:10082300CCC582C583CDC583DAE5D0E0CA22CAC070
:10083300E0E0A3C582CCC582C583CDC583F0A3C543
:1008430082CCC582C583CDC583DAE6D0E0CA22C097
:10085300E0E493A3D39C5010E493A3C39C400AD039
:10086300E0D0E0D0E0020802A3A3A3D0E022C008B6
:10087300C3E096F50808A3E096420808A3E0964271
:100883000808A3E09645087001D3D0082270090830
:100893000808226016181818C6C333C608C633C61C
:1008A30008C633C608C633C6D5E0EA22C09FF59F03
:1008B300E473D09F22D083D082C09FE493C0E074BE
:1008C3000193C0E0740293F59F22C0E0C0D0E8C05A
:1008D300E0A8A8D2AFC2C7751A00E8A2E792AFD0CA
:1008E300E0F8D0D0D0E0327404800A740380067438
:1008F3000280027401C0E0F404120905D0E0120B77
:100903005B222518F58210AF08F518400C151980E5
:1009130008F51840021519D2AF8519832200C0D0FB
:10092300251810AF08F518500C05198008F5185054
:10093300020519D2AFD0D022BB0102E722C082C088
:100943008389828A83BB0003E08002E493D083D04F
:1009530082226016080808C6C313C618C613C61831
:10096300C613C618C613C6D5E0EA22C3E0C696F678
:1009730008A3E0C696F608A3E0C696F608A3E0C669
:1009830096F6222518F8E43519F9222518FAE435E4
:1009930019FB222518FCE43519FD22C0E0E493A3DA
:1009A3006C7009D0E0D0E0D0E0020802A3A3D0E04D
:1009B30022251810AF08F518400C15198008F518F2
:1009C30040021519D2AF22E76670100809E7667076
:1009D3000A0809E76670040809E76622C3E0960877
:1009E300A3E09608A3E09608A3E096A2D265D033CD
:1009F30022E066701008A3E066700A08A3E0667040
:100A03000408A3E06622C3E096F008A3E096F0088A
:100A1300A3E096F008A3E096F022C3E697F6080950
:100A2300E697F60809E697F60809E697F622C3E47F
:100A3300939608740193960874029396087403932B
:100A43009622E647F60809E647F60809E647F60858
:100A530009E647F622700422600D18C6C333C608A0
:100A6300C633C6D5E0F41822E026F608A3E036F62E
:100A730008A3E036F608A3E036F622E657F608099F
:100A8300E657F60809E657F60809E657F622E05650
:100A9300F608A3E056F608A3E056F608A3E056F6D8
:100AA30022E627F60809E637F60809E637F60809C5
:100AB300E637F622E056F008A3E056F008A3E05626
:100AC300F008A3E056F022E026F008A3E036F00891
:100AD300A3E036F008A3E036F022E4C396F608E478
:100AE30096F608E496F608E496F622C6F4C608C617
:100AF300F4C608C6F4C608C6F4C622C3E7960809B6
:100B0300E7960809E7960809E79622C3E09608A343
:100B1300E09608A3E09608A3E0962275D0007581BD
:100B23003F751801751904000204D2E6F008A3E624
:100B3300F008A3E6F008A3E6F022600C08C6C3138E
:100B4300C618C613C6D5E0F422E0F608A3E0F608FB
:100B5300A3E0F608A3E0F622CAC0E0E6F0A308DAB1
:100B6300FAD0E0FA22E8F0A3E9F0A3EAF0A3EBF06D
:100B730022E0F8A3E0F9A3E0FAA3E0FB22EAF0A362
:100B8300EBF0A3ECF0A3EDF022E0FAA3E0FBA3E08B
:100B9300FCA3E0FD22E5C754F84401F5C77901221F
:100BA3002518F582E43519F58322C2AF75D69F0265
:100BB3000000221208B8F3E7031208B8FDE7031296
:100BC30008B89AE8031208B859E9031208B8DEEA2C
:100BD300031208B835EB031208B86DEB031208B81B
:100BE3009CBE031208B818BF031208B84BBF031208
:100BF30008B879BF031208B893C1031208B8AFC18C
:100C0300031208B8F4C1031208B879C2031208B872
:100C1300C5C2031208B855C3031208B82DC4031282
:100C230008B87EC4031208B8E3C4031208B860C549
:100C3300031208B896C5031208B8E1C5031208B831
:100C430007C6031208B897C6031208B82EC70312C3
:100C530008B87AC7031208B8ABC7031208B8E2C7CB
:100C6300031208B873C9031208B83DCA031208B8BF
:100C730017CB031208B8E0C2041208B8F1C2041279
:100C830008B809C3041208B8EE7F001208B8E3FFDE
:100C9300011208B845BF041208B855BF041208B8BA
:100CA3006DBF041208B821C0041208B8E1FE011296
:100CB30008B864FF011208B8CAFF011208B821BCC2
:100CC300041208B845BC041208B8BDBC041208B825
:100CD300D0BC041208B81CBD041208B83EBD0412EF
:100CE30008B841BD041208B8BEB9041208B8D3B994
:100CF300041208B847BA041208B861BA041208B853
:100D030078BA041208B886BA041208B89EBA041254
:100D130008B8BCBA041208B8BC99041208B8CA9936
:100D2300041208B8439A041208B8179B041208B8AF
:100D3300E99C041208B84E9D041208B8AB9D041236
:100D430008B8F87F001208B8B6B3041208B8EEB3B7
:100D5300041208B839B5041208B8BDB5041208B8AE
:100D6300F686041208B82287041208B8938904127D
:100D730008B8D389041208B8138A041208B8278A5A
:100D8300041208B8408A041208B8318B041208B858
:100D9300D68B041208B8EA8B041208B8C0B5041243
:100DA30008B8E4B5041208B8FDB5041208B82FB6A4
:100DB300041208B85FB6041208B88CB6041208B857
:100DC30096B6041208B8F8B6041208B807B70412A6
:100DD30008B811B7041208B81EB7041208B8FBA963
:100DE300041208B81BAA041208B85AAA041208B8B5
:100DF30075AA041208B894AA041208B8FAAA04122D
:100E030008B803AB041208B860AB041208B86FABA0
:100E1300041208B893AB041208B854AC041208B80F
:100E230061AC041208B872AC041208B899C2041277
:100E330008B8B1C2041208B8DDC2041208B8408C65
:100E4300041208B89A8D041208B8A88D041208B8C1
:100E5300BB8D041208B8D08D041208B8E58D0412B6
:100E630008B8F88D041208B86C8E041208B8D18E35
:100E7300041208B8598F041208B8D58F041208B8A1
:100E83009990041208B8A990041208B8B8900412F3
:100E930008B881C1041208B8A5C1041208B8CDC1AD
:100EA300041208B8F5C1041208B82FAF041208B829
:100EB30056AF041208B874AF041208B8E7AF0412AF
:100EC30008B828A7041208B841A7041208B84DA708
:100ED300041208B861A7041208B87FA7041208B85F
:100EE30089A7041208B893A7041208B8A6A7041286
:100EF30008B82CA8041208B8A1A8041208B8D0A8EE
:100F0300041208B81EA9041208B86DA9041208B87F
:100F130088A9041208B892A9041208B8A3A9041254
:100F230008B8E6A9041208B8947F001208B8DF7F56
:100F3300001208B8B3EB031208B8DDEB031208B8CC
:100F4300FAEB031208B80DEC031208B823EC0312F2
:100F530008B881EC031208B8B9EC031208B8ADF075
:100F6300031208B8F2F1031208B825F2031208B805
:100F730088F2031208B8E8F3031208B810F4031256
:100F830008B825F4031208B835F4031208B879F445
:100F9300031208B8D4F4031208B8E4F4031208B82F
:100FA300F1BA041208B80BBB041208B833BB04121D
:100FB30008B84CBB041208B870BB041208B88EBB47
:100FC300041208B8A5BB041208B8D3BB041208B8AE
:100FD300EEBB041208B827C0041208B86BC0041291
:100FE30008B8BF9D041208B8CF9D041208B8D49E58
:100FF300041208B8069F041208B8369F041208B8F2
:10100300599F041208B8709F041208B8AA9F0412CB
:1010130008B80FA0041208B851A0041208B890A091
:10102300041208B8C1A0041208B8ECA0041208B84E
:1010330028B7041208B83AB7041208B84EB8041215
:1010430008B851B8041208B84ABE041208B880BEE2
:10105300041208B896BE041208B8D8BE041208B821
:10106300E8BE041208B8F7BE041208B83BBF041266
:1010730008B80080041208B83A80041208B8A380A4
:10108300041208B8C080041208B86281041208B8B8
:101093006B81041208B8B081041208B8D981041214
:1010A30008B8E681041208B85782041208B8E2822D
:1010B300041208B83083041208B86E83041208B807
:1010C300D383041208B8F683041208B86D8404129B
:1010D30008B8C484041208B8FF84041208B834851D
:1010E300041208B84685041208B85885041208B8D3
:1010F3007785041208B88085041208B84086041264
:1011030008B88C86041208B8CA86041208B87EB8D8
:10111300041208B8A6FF031208B880B1041208B875
:10112300B6B1041208B8FEB1041208B857B30412DA
:1011330008B8E1AA031208B805AC031208B83FAC1B
:10114300031208B8E9AD031208B813AE031208B8C6
:1011530088B0031208B8C8B0031208B85EB203120D
:1011630008B8FBB2031208B84DB3031208B8F0B3C2
:10117300031208B828B4031208B86AB4031208B8F3
:10118300D9B5031208B827B7031208B858B9031220
:1011930008B886B9031208B8ADB9031208B8B6B9CE
:1011A300031208B80DBA031208B89FBA031208B89D
:1011B300CCBD031208B84FBE031208B8D9C004123D
:1011C30008B8F1C0041208B8FBC0041208B84FC134
:1011D300041208B8F190041208B80791041208B871
:1011E300A891041208B8E791041208B804920412F3
:1011F30008B83592041208B88292041208B8B5925E
:10120300041208B8F092041208B8EB94041208B858
:101213005395041208B84ABD041208B8A9BD0412B4
:1012230008B8E7BD041208B828BE041208B8BDDA2E
:10123300011208B8C9DA011208B82BDB011208B889
:1012430035DB011208B8C2DB011208B8FEDB01125C
:1012530008B8B8DC011208B808DD011208B8A9DD26
:10126300011208B829DE011208B8E5DF011208B837
:10127300DCE1011208B8E4E2011208B891E30112BB
:1012830008B84BE8011208B845E9011208B8DFE9CC
:10129300011208B804EA011208B8A0EA011208B85A
:1012A300B5EA011208B8D9EA011208B84AEB0112EB
:1012B30008B867EB011208B891EB011208B825EDE5
:1012C300011208B8CBED011208B812EE011208B8EA
:1012D30077EE011208B8F8EE011208B85CEF0112BC
:1012E30008B8B8EF011208B84EF0011208B8B8F008
:1012F300011208B8ECF0011208B850F1011208B855
:10130300A9F2011208B838F4011208B8E6F4011280
:1013130008B814F5011208B819F7011208B8B3F99F
:10132300011208B8B3FA011208B814FC031208B882
:10133300CEFC031208B834FD031208B855FD03129E
:1013430008B828FE031208B8A0AC041208B816ADFA
:10135300041208B8ABAE041208B8F8AE041208B809
:1013630020AF041208B823AF041208B82CAF04123C
:1013730008B844C3041208B80596031208B8349693
:10138300031208B8AC96031208B8AF97031208B853
:101393000B98031208B88C99031208B8A899031282
:1013A30008B8FA99031208B83D9A031208B8509A7C
:1013B300031208B8A29A031208B85D9B031208B877
:1013C300C99B031208B8F39B031208B82B9C0312A2
:1013D30008B8A79D031208B8809E031208B8C99FD6
:1013E300031208B89CA0031208B824A1031208B87A
:1013F3006CA1031208B886A1031208B8CDA1031289
:1014030008B8EDA1031208B883A2031208B812A307
:10141300031208B86CA3031208B8B0A3031208B8E8
:101423002CA6031208B85AA7031208B896A70312EA
:1014330008B888A8031208B8B0A8031208B8B3A85C
:10144300031208B8BDA8031208B8D0A8031208B83D
:1014530059A9031208B88FA9031208B8A2A9031245
:1014630008B8CEA9031208B8F5A9031208B819AA37
:10147300031208B88AAA031208B898AA031208B874
:10148300CBAA031208B81AC2041208B826C204125F
:1014930008B864C2041208B8EB7F001208B814F548
:1014A300031208B863F5031208B803F7031208B868
:1014B300BEF8031208B800F9031208B8E9F90312D9
:1014C30008B8F3FA031208B815FB031208B85FFB58
:1014D300031208B8E0FB031208B8CCD3021208B811
:1014E300EFD3021208B835D5021208B87ED502121E
:1014F30008B8D8D5021208B83ED6021208B841D6A9
:10150300021208B88DD6021208B807D7021208B81B
:101513008DD7021208B890D7021208B81CD802124D
:1015230008B85FD8021208B89EDC021208B83BDE86
:10153300021208B87DDE021208B8F8E1021208B8F8
:1015430026E3021208B878E4021208B830E6021261
:1015530008B8BDE6021208B8B7E7021208B86DE989
:10156300021208B843EA021208B8A6EB021208B83E
:1015730016EC021208B8BEEC021208B85EED0212B5
:1015830008B8C8ED021208B8E1ED021208B86BEE14
:10159300021208B8C1EE021208B805EF021208B829
:1015A3006CEF021208B8E2F0021208B810F202124D
:1015B30008B889F2021208B88CF4021208B834F59C
:1015C300021208B8C8F5021208B89BF6021208B84E
:1015D3007AF8021208B8ECF9021208B8FCFA0212FF
:1015E30008B8A4FB021208B8B6FC021208B81465C6
:1015F300001208B88865001208B85E95031208B88F
:101603000E66001208B85766001208B8A1660012E9
:1016130008B8D966001208B85767001208B8B1674E
:10162300001208B80D69001208B89E69001208B8C4
:10163300FC69001208B8166A001208B8376A00126B
:1016430008B88F6A001208B8006D001208B81F6D41
:10165300001208B8FE6D001208B8166F001208B821
:10166300E9E7031208B80070001208B869700012A5
:1016730008B82371001208B8E172001208B8E273C7
:10168300001208B86775001208B85277001208B83C
:10169300B579001208B85B7B001208B8297C0012E8
:1016A30008B88F7C001208B8A67C001208B8967D93
:1016B300001208B8827E001208B8EF7E001208B844
:1016C30047A4041208B893A5041208B850A604123C
:1016D30008B8B4A6041208B844A1041208B85FA15C
:1016E300041208B8A3A1041208B8C9A1041208B8C7
:1016F300EFA1041208B807A2041208B86AA20412E0
:1017030008B87FA2041208B8A1A3041208B8AAA3B8
:10171300041208B8B3A3041208B8BCA3041208B88F
:101723006095041208B84E99041208B8539904122C
:1017330008B85599041208B883FE021208B818C3F2
:10174300041208B8EBAC021208B81EAD021208B8B6
:101753008AAD021208B825AE021208B8C2AE021250
:1017630008B807AF021208B829AF021208B842AF8F
:10177300021208B868AF021208B88AAF021208B89A
:10178300C8AF021208B80CB0021208B82EB0021289
:1017930008B890B0021208B857B1021208B80EB2D6
:1017A300021208B880B2021208B84BB3021208B88A
:1017B3009EB3021208B804B4021208B83EB402126F
:1017C30008B890B4021208B8FEB4021208B869B59A
:1017D300021208B86CB5021208B8EDB5021208B8C7
:1017E30084B6021208B8E5B6021208B8D5B70212D9
:1017F30008B8F4B7021208B858B9021208B865B9A4
:10180300021208B871BA021208B87EBA021208B8F6
:1018130087BA021208B85FBC021208B879BD021277
:1018230008B8F2BD021208B864BE021208B886BE38
:10183300021208B810BF021208B856BF021208B845
:101843002AC1021208B801C5021208B815C502124E
:1018530008B825C5021208B82FC5021208B838C542
:10186300021208B841C5021208B84BC5021208B8E3
:1018730078C5021208B8A1C5021208B8ACC5021295
:1018830008B8D0C5021208B8F4C5021208B85EC67B
:10189300021208B8A4C6021208B8C1C6021208B8D8
:1018A3003EC7021208B875C7021208B8B4C70212BD
:1018B30008B801C8021208B887C8021208B855CA86
:1018C300021208B8EACA021208B8CECB021208B84C
:1018D30035CE021208B88ECE021208B8D8CE021244
:1018E30008B833D0021208B871D0021208B8C3D0B6
:1018F300021208B878D1021208B827D2021208B827
:1019030064D2021208B8F9D2021208B865D30212DF
:1019130008B8BF81011208B8F181011208B81F820B
:10192300011208B8F583011208B8D584011208B86A
:101933002D85011208B86886011208B8B486011211
:1019430008B8DD89011208B8D08C011208B8208EBE
:10195300011208B8B68E011208B8C28E011208B877
:10196300F48E011208B87790011208B8859101121C
:1019730008B8AF91011208B81692011208B86F9215
:10198300011208B8D592011208B8EC94011208B8F4
:101993007B96011208B84597011208B88B9801127B
:1019A30008B8DB9A011208B8AB9D011208B8B89DBC
:1019B300011208B83F9E011208B8D39E011208B85D
:1019C300169F011208B89C9F011208B8B99F011213
:1019D30008B8E99F011208B81EA0011208B8EEA0CA
:1019E300011208B897A1011208B81DA4011208B882
:1019F3003DA5011208B828A6011208B8AAA601122B
:101A030008B8E1AA011208B81EAB011208B876ABF8
:101A1300011208B8A9AB011208B813AC011208B837
:101A230049AC011208B8D4AC011208B82CAD0112AC
:101A330008B803AE011208B8BCAE011208B857AF1C
:101A4300011208B85FB2011208B87BB3011208B8DB
:101A53001EB7011208B812B8011208B815B801125E
:101A630008B844B8011208B84ABA011208B823BB2F
:101A7300011208B866BB011208B8BCBC011208B851
:101A8300FBBC011208B88DBD011208B8C1BD01121B
:101A930008B886BE011208B89EC0011208B80FC16B
:101AA300011208B84FC1011208B8DDC1011208B80C
:101AB30005C3011208B8C7C3011208B8CEC5011285
:101AC30008B8E6C5011208B8FAC5011208B832C64B
:101AD300011208B860C6011208B8DFC7011208B8BE
:101AE30004C9011208B868C9011208B81ACA011258
:101AF30008B84ACA011208B811CB011208B8A9CB19
:101B0300011208B8CFCD011208B804CE011208B8EB
:101B130067CE011208B896CF011208B83ED0011261
:101B230008B86FD0011208B887D0011208B816D1CF
:101B3300011208B8CAD3011208B8A2D5011208B815
:101B4300BED5011208B8DAD5011208B8A8D6011219
:101B530008B89BDA011208B8AD27001208B8DF27CE
:101B6300001208B8CE2B001208B81A2C001208B8BD
:101B7300602C001208B8022D001208B85E2D001266
:101B830008B8A32D001208B8EA2E001208B8FE2FD9
:101B9300001208B8ED33001208B87134001208B807
:101BA3007E35001208B8DA35001208B8CA370012B9
:101BB30008B83F38001208B84938001208B8563838
:101BC300001208B88138001208B86839001208B842
:101BD300123A001208B8903A001208B8B03A00124C
:101BE30008B8D93A001208B8FB3A001208B85B3DAE
:101BF300001208B8213E001208B8663E001208B869
:101C0300E33E001208B8943F001208B8C63F001222
:101C130008B80C40001208B84840001208B89840B1
:101C2300001208B8EC40001208B84241001208B88C
:101C33008E41001208B8FB41001208B87642001228
:101C430008B84144001208B84145001208B8664676
:101C5300001208B8A549001208B8B84C001208B819
:101C6300754D001208B8B94D001208B8694F00123B
:101C730008B87D4F001208B8874F001208B8914F7B
:101C8300001208B89D4F001208B8B94F001208B8E7
:101C93006450001208B8A350001208B8AD500012E7
:101CA30008B8B750001208B82751001208B872518B
:101CB300001208B88752001208B8E352001208B89D
:101CC3006453001208B82354001208B82C550012AC
:101CD30008B86056001208B84E57001208B8665785
:101CE300001208B8C157001208B8DF57001208B82D
:101CF3002758001208B84E58001208B8E9580012C5
:101D030008B8AF59001208B8415A001208B8BB5AB4
:101D1300001208B8D55B001208B8825C001208B83C
:101D2300FE5C001208B80C5E001208B85C5E00127C
:101D330008B8C05E001208B8225F001208B8505FEE
:101D4300001208B8745F001208B8A95F001208B83F
:101D5300DA5F001208B80D60001208B82D60001297
:101D630008B89560001208B88961001208B8E461E8
:101D7300001208B80D62001208B89562001208B884
:101D83000363001208B82663001208B851630012F7
:101D930008B83664001208B8F0CB031208B828CC90
:101DA300031208B849CC031208B88BCC031208B845
:101DB300EDCC031208B8F7CC031208B807CD031211
:101DC30008B842CD031208B822D1031208B80FD3C2
:101DD300031208B8F5D4031208B88CD5031208B857
:101DE3002ED6031208B82481021208B8A281021267
:101DF30008B8FE81021208B84982021208B8648248
:101E0300021208B88F82021208B8AC82021208B814
:101E1300B882021208B84F84021208B8688402120A
:101E230008B8ED84021208B80085021208B81F85AD
:101E3300021208B8C385021208B84487021208B810
:101E4300F788021208B88D89021208B89089021225
:101E530008B8008A021208B81E8A021208B8B58AA6
:101E6300021208B8FD8A021208B8008B021208B8E1
:101E7300C68B021208B8338C021208B8598C0212AE
:101E830008B8E48C021208B8028D021208B8488D13
:101E9300021208B8FC8D021208B8468E021208B866
:101EA300758E021208B8D28E021208B8078F02127A
:101EB30008B8338F021208B8418F021208B88E8F08
:101EC300021208B8FE8F021208B84790021208B82F
:101ED3009390021208B8BF90021208B8CA90021277
:101EE30008B8E890021208B8D391021208B8DD913D
:101EF300021208B81892021208B82892021208B8FF
:101F03003192021208B88592021208B8999202120D
:101F130008B8C893021208B8DF93021208B8F49302
:101F2300021208B88294021208B8C794021208B8C1
:101F33005395021208B85E95021208B8A0960212D1
:101F430008B8BB96021208B80797021208B876972A
:101F5300021208B8AF97021208B8C997021208B85C
:101F63000B98021208B8DB9A021208B8889B021277
:101F730008B8F59B021208B8359E021208B84D9EA8
:101F8300021208B8509E021208B85C9E021208B8EA
:101F9300709E021208B8789E021208B8AB9E021215
:101FA30008B8AD9F021208B834A0021208B8A4A062
:101FB300021208B826A1021208B8E7A1021208B853
:101FC30006A2021208B8A7A2021208B804A30212BA
:101FD30008B807A3021208B834A3021208B849A329
:101FE300021208B8BDA3021208B80CA5021208B861
:101FF30012A6021208B89DA6021208B8B8A70212C8
:1020030008B880A8021208B8B1A8021208B8D4A868
:10201300021208B8DDA8021208B80CA9021208B807
:102023009CA9021208B852AA021208B8C7AA02123F
:1020330008B86EAB021208B8E3AB021208B81AACC8
:10204300021208B858AC021208B88EAC021208B8D3
:10205300B293031208B87093031208B89A9203124A
:1020630008B88492031208B84592031208B89F91E6
:10207300031208B8A48E031208B88D8C031208B893
:102083005A8C031208B8F58B031208B8888B031215
:1020930008B8478B031208B8808A031208B81B8A52
:1020A300031208B8C689031208B86989031208B86D
:1020B3004088031208B8DD87031208B82787031284
:1020C30008B82287031208B81687031208B8C98311
:1020D300031208B8A383031208B84883031208B88D
:1020E3007FE7031208B86BE7031208B8CAE60312C6
:1020F30008B8D4E5031208B805E5031208B802E3EB
:10210300031208B855E2031208B8F382031208B8A1
:10211300E082031208B8D582031208B8E9E103127A
:1021230008B8B182031208B8EC80031208B86B80B8
:10213300031208B82780031208B8D595031208B80C
:102143000080031208B8936F001208B89EE10312CF
:1021530008B845E1031208B807E1031208B8DAE04A
:10216300031208B8A6E0031208B845E0031208B842
:102173002DE0031208B8FDDF031208B8D2DC031206
:1021830008B8A5DA031208B8ACD8031208B832D8D5
:10219300031208B8E1D7031208B89BD7031208B893
:1021A300CB95031208B805D7031208B8D065000011
:1021B300000080FB8F000100ED1587000100EB1587
:1021C30035000400B41525000200B81526000200EE
:1021D300BA1527000200BC1528000100C615290006
:1021E3000100C715840004002D13860001004F155C
:1021F3002A000100C8152B000100C9152C0001009D
:10220300CD152D00080039132E000100CE152F0027
:102213000100CF1530000100D01531000100D115A8
:102223003200010041133300010042133400010066
:10223300D21536000100431338000100D3153900CD
:102243000100CC1583000200E915630001004F1360
:1022530064000100CA1565000100CB156D00010083
:10226300501371000800311366000100E8154300A4
:102273000100D91544000200DA1545000100DC1500
:1022830046000200DD15470008004713480001001F
:10229300DF154B000100E01504000100EC15A1005F
:1022A3000100F01537000100EF1588000100EE155D
:1022B3003C00010044133D000100D4154900020015
:1022C300E1156700010051134D000200E3154E00B4
:1022D3000100E5154F000200E6153E000100D81588
:1022E30051000100451352000100D61553000100AF
:1022F300D715540001004613000000000000000140
:10230300363601010001020100010301000104014D
:10231300060605020000070100340801000F090446
:1023230001010D0100FF0E08000017020000190152
:1023330000FF1A0100011B0100FE1C0100081D0221
:1023430000001F0100012001000121020000230100
:10235300000F2402000026010001270100082802C3
:1023630000FF2A0100072B0102402C0100002D0170
:1023730000012E0100012F0100FF30010B1D310868
:1023830000003A0100083B01000F3C0100013D0140
:1023930000FF3E04000042040000460400004A041B
:1023A30000004E04000052040000560400005A04CA
:1023B3000000000000002001BA810000010020019C
:1023C300B981000002002001BB810000030020014D
:1023D300BD81000004004201198100000500420193
:1023E3001E81000006004201CC800000070030017E
:1023F300BE81000010004203781500001100300375
:102403000112000012001003891500000040420170
:102413008A150000FDFF2101B7810300000021039D
:1024230002120300FDFF2181B781060000001001A5
:1024330004120600FDFF2181B7810103710301032B
:102443000103010301030103220302030103100338
:10245300000300030003000300030003000342031F
:1024630000032403060300030003040312032503EC
:1024730023032503230304030403000300030003CE
:102483004403000300032303000365032100350312
:102493008103000305030003000300030003250376
:1024A3002303030271023001600211027002010270
:1024B300020202028002100261023A00410063023A
:1024C3007302720262024302000213023800000226
:1024D30000020402120200020002000200020402CF
:1024E3000402370037003C024402000239000002B4
:1024F3000002650200023502810200020502820227
:1025030083020002010171010101010111010101B5
:102513003101010101018001100161013B0014003F
:10252300630173017201620143010001130106019A
:102533003D01350004011201000100010001000109
:1025430004010401330133013C014401320136002B
:102553000001000165010001350081010001050151
:10256300820183010001030071003001600011004A
:10257300700031022003500480001000610000004D
:102583001400630073007200620043000000130034
:10259300060000000000040012000000000000001C
:1025A300000004000400370037003C024400000030
:1025B30000000000000065000000350081000000FD
:1025C3000500000083000000360001000600000043
:1025D3000F0000000000000000000000000003FFE7
:1025E300FF00000403FFFF0000FFFF0FF4010005DD
:1025F300C4040320000100000B00000000000000E1
:102603000003010F000000000000000000000000B4
:1026130000000000000000000000000000000000B7
:10262300000000000000F4121213FA124C120013FF
:1026330018130013241306134C120013181300006D
:102643000000000000000000000000000000000087
:1026530000000C134C1200000000000000000000FA
:102663000000000000000000000000000000000067
:102673000000000000000000000000000000000057
:102683000000130046150000A0150100A01502006C
:10269300FE140280F8140300041504000A150480D4
:1026A30010150500161506002215310034153300E8
:1026B3003A1534004015FFFF000007ECFDFDFDEC6B
:1026C300DCDCCCBCACAC9C9C8C7C7C6C6C5C5C5CC7
:1026D3004C4C3C3C2C2C1C1C03EAF5E5D5D5C5B56C
:1026E300A595958585757565655555454535352597
:1026F300251515050AD01B029A1B05A61B07A01B4F
:102703000C821B0D8E1BFF000000160F00000B1523
:102713000B020002220F3300000E0F5A6967426555
:1027230065416C6C69616E63653039D0D1D2D3D4A5
:10273300D5D6D7D8D9DADBDCDDDEDF303016181991
:1027430020231A1C1E3000034D4C4651181A250530
:102753000200011916181616182303003030171833
:102763001921301B1D1F30003C40423A3F3F392F97
:1027730047300C0E020B040B0A0708000F02040279
:10278300010101010902E803000000BE040A01007F
:102793000E000300E80304091103101E030A0C04CE
:1027A300040828020C0508151E0474F7120466E9D0
:1027B300901426F09013DBE4F012103090143EE4F2
:1027C300F0A3F0901427F0A3F0121D2612103690F8
:1027D300135FE4F0A3F012170802411374F012041C
:1027E3006674D31209B4125B6F548060669014262A
:1027F300E0F91210A88A088B09AF09EA4F604C7CF4
:102803000080010CEC75F003A4F8A9F074F728F527
:1028130082742639F583E493F46029E493F88A8279
:102823008B83E06870DDEC75F003A4F874F828F589
:1028330082742639F583E493C0E0740193F583D061
:10284300821205F1AA08EFFB12109612631164803D
:10285300022BAE851882851983A3E05420601F12D2
:102863001C368A088B09AF09EA4F600A121B8EAA2D
:1028730008EFFB1210961263116420022BAE851829
:1028830082851983E0A2E050429013E0E0640F7068
:102893002E90078312631C900783C3E094E9A3E09F
:1028A3009403400A7A007B8090122E1241F579003E
:1028B300121B64E960099015B4120B8C121B7C8502
:1028C3001882851983E06401022B9354207003025C
:1028D3002B987A207B00901426E0F91211FEEA4B24
:1028E3004C4D701A90143A120B74E8494A4B700E0F
:1028F300750801750900750A00750B00806D750C6C
:1029030000750D00750E00750F001212108A088BEA
:10291300098C0A8D0B90143A120B74E8494A4B60E8
:102923003190143A7808120871400E750CFF750D3A
:10293300FF750EFF750F7F801985080C85090D8CB7
:102943000E8D0F90143A780C12096E7401780C12E4
:102953000955850C08850D09850E0A850F0BE508B9
:102963004509450A450B7003022AF27C0079047A73
:10297300007B00121C0C8A0C8B0DAE0CAF0D022ACF
:10298300367402120BA374FFF07403120BA374FFCB
:10299300F07404120BA374FF124268125A297407CD
:1029A300120996125CDFE96401706A122BBA448043
:1029B300F8A3E0F97428120BA3E8F0A3E9125FD59A
:1029C300E0C0E0742A120BA3D0E012425554086011
:1029D300167428120BA3A3E04401122BC7C0E074A2
:1029E3002C120BA3D0E0F0125BB26011E8240B129F
:1029F30033ADF87416120BA3E8F0A3E4F090816FE3
:102A030012075C7406120996740B12098E12184091
:102A130074041209208E828F83A3A3A3A3A3A3A369
:102A2300A3A37406122BC7F9121BEE7405120BA392
:102A3300125D98EE4F7003022AF27C007904EEFADD
:102A4300EFFB121C0C7405120BA3EAF0A3EB123F6D
:102A53007FE0F50CA3E0F50DE4F50EF50F780879AA
:102A63000C120AFE4023EE2404F8E43FF985080C17
:102A730085090D8882F583C3E0950CF0A3E0950DDD
:102A8300126406E84970A4800C8E828F83A3A3A3EB
:102A9300A3E4F0A3F08E828F83A3A3A3A3A3A3A392
:102AA300A3A3A3E064018E828F83A3A3A3A3A3A301
:102AB3007020E0540460030229848E828F83A3A3D1
:102AC300A3A3A3A3A3A3A37406F07AB7122CED02C6
:102AD3002A2EA3A3A3A3E060030229848E828F83FB
:102AE300A3A3A3A3A3A3A3A3A37401F0022A2E1257
:102AF3001BDC7C0079017A007B00121C0CEA4B6022
:102B0300031241EE7C0079047A007B00121C0CEA6C
:102B13004B701380448A828B83A3A3A3A3125DB05B
:102B2300EE98EF99400B8A828B83A3A3A3A3125D34
:102B3300987C007904121C0C8B0BA90BEA4970D505
:102B4300C3E5089EE5099F500DC3EE9508FEEF957A
:102B530009FFEE4F700D1241EE90143A122BC0A3F1
:102B6300F08024EE2EFEEF338E08F509E4F50AF526
:102B73000B78081208EA7A20122D961209201212F5
:102B83001090143A120B80851882851983E0642013
:102B9300FAA3E08016A3E054046013125406122132
:102BA3000A79011235741263116404FB80047A00FC
:102BB3007B00742D025B8EEE125B9CE022E4F0A39B
:102BC300F0A3F02212425AA3A3E022C082C083746E
:102BD300EA1209B47C167D007900AA18AB19121009
:102BE3007E7408120BA37402F09013CF1256421294
:102BF3002C0E7409120BA312565A7413120BA3E46E
:102C03001252D91216FC7416024524E8F0A3E9F017
:102C13009013D9125D802274F712046674DA1209D4
:102C2300B4EAFEEBFFEA4F602DAC18AD19121C5449
:102C33007406120BA3E0601E7417120BA3E0FD745D
:102C430001120BA3E0FCEEFAEFFB7900121B3AE949
:102C5300600479A480027900742602411074F7128B
:102C63000466EAFEEBFF8A82F583A3A3A3A3A3A3CF
:102C7300E0544060178A828B83125B4F12443360A7
:102C8300067AFF7BFF8015125B4B80039013CF12F4
:102C93005A2974FE6A700374FF6B6041125B4B1216
:102CA3005B75121CEAE98E828F83600B1257381210
:102CB30063D1E4F0A380031263C0F07C6A7D1B8EB2
:102CC300828F83123AA9E9F5087015EE4F600979EE
:102CD30001EEFAEFFB121BE8A9080241137508CDB8
:102CE300AA08122CEDE960E380EE8E828F831257DF
:102CF3003C240CF582E438F583E0F9121B76227448
:102D0300F6120466E9FEEAFF7A0F7B00121090EADE
:102D13004B601A8A828B83740CF0EEA3A3F0EF8AC4
:102D2300828B83123ECE1253377900802BEEF91239
:102D33001C128B09A909EA49601C8A828B83A3A30D
:102D4300A3A3A3A3A3A3A37406123ED7E0F9121867
:102D5300E2EEF9121BEE791002512274F4120466AA
:102D63008A088B098C0A8D0B9013E0E0640F701EA8
:102D7300EA4B4C4D60189013DBE064086005E06497
:102D830004700B78081208EA122D94120920022FFE
:102D9300F97A017B00901426E0F91211EC740422F5
:102DA30074F412046674FC1209B4EAFEEBFF8A821F
:102DB300F583A3A3E0F9121C128A088B09EA4B706E
:102DC30003022EDC8E828F83A3A882A983E0C0E056
:102DD300EA12532DD0E0123D3D64F160288E828FBC
:102DE30083A3E064CD601E8E828F83A3E0641A60A8
:102DF300148E828F83A3E064E9600A8E828F83A39B
:102E0300E064E170337900121BE8E9602BE50824E4
:102E130004F50AE43509F50B850882850983A3A324
:102E2300A3A3A3A3123E13123D1B121042850A82D1
:102E3300850B83125B7580708E828F83A3E0C0E065
:102E43007402120BA3D0E01245321246551237C357
:102E5300C0E07403120BA3D0E0F0E5081260801207
:102E6300346CE0AA18AB19700512183A8003121CCF
:102E7300D27402120BA3E064E9702D8508828509E0
:102E8300831235D2750A01780A1208F6750AE978B1
:102E93000A1208F6123CEF123790FCA3E0FD8A8277
:102EA3008B831237BA120920850882850983A3A36D
:102EB300A3A3A3A3A3A3A3E064027012850882853E
:102EC3000983A3A3A3A3A3A3A3A3A37406F08E823E
:102ED3008F83A3A3E0F9121BEE121BDC9015BA1229
:102EE30033DE7404022FF674F4120466EAFEEBFF79
:102EF3007508008A82F583A3A3A3A3A3E0603875B2
:102F03000808125A1C79FF1219BAEA4B60107508A7
:102F13002C8E828F83A3A3A3A3A3E0D2E0F08E829F
:102F23008F83A3A3A3A3A3E0540364016003022F2D
:102F3300E5430811022FE5EA241812491B6036EA1B
:102F4300241A12491B6003F47013125D607003A30B
:102F5300E0696003022FE5750822022FE5EA241BCE
:102F6300122FE9241A12491BFAEE241912491BF9EC
:102F73001218D0806D8A828B83A3A3A3A3A3A3A3D8
:102F8300A3A31233C970037508018E828F83125D68
:102F9300647003A3E0697006E508D2E1F508E5086B
:102FA30060158E828F83A3A3E07006E508D2E580C7
:102FB30004E508D2E6F50812442664017006E50824
:102FC300D2E0F5088E828F83A3A3E06015EE241D63
:102FD300124C3AF9121CD8E964016006E508C2E014
:102FE300F508A9088010F582E43FF583126429EA05
:102FF3002274091209207F0402069174F0120466F8
:1030030074D71209B4EAFEEBFF8A82F583A3A3A364
:10301300A3E0600E9015B8125BB960069015B81264
:1030230033DE74031209968E828F83A3A3A31255F2
:1030330005125A27121C54E9700302318F78017468
:1030430005120BA3E0C39402400278007407120B2D
:10305300A3E0C3940240027800740C120BA3E06453
:10306300F87003A3E0F4700302318F740C120BA306
:10307300E064F97003A3E0F4700302318F740C125F
:103083000BA3E064FA7003A3E0F4700302318F74BE
:103093000C120BA3E064FB7003A3E0F47003023192
:1030A3008F7406120BA3E0F99013C9E06960030261
:1030B300318FE8A2E0400302318F7427120BA3E0A3
:1030C300600302318FEE2413125D767422120BA378
:1030D30012550F241C125D767410120BA312565A4C
:1030E3007409120BA3E0601D741A120BA3E0FD74A4
:1030F30004120BA3E0FC8E828F83125A27790112EC
:103103001B3AE9703B740312098E121B88E9F50C14
:103113007409120BA3E0702C9013C3E06026742291
:10312300596422601F744259644270147420120B54
:10313300A31233C3600E7420120BA31233BC6004BA
:103143007ACF804AE9A2E6504D7420120BA3124CA9
:103153004024FD600F14600C24FD600824FD60040E
:1031630024FE70287420120BA31233B5700E742042
:10317300120BA3125266A3E0640D601A74031209C2
:103183008E121D02E96401700D0233A57AD37B0010
:103193001214980233A5EE242DF582E43FF5831231
:1031A30035C97003A3E069701D750800780812081B
:1031B300F678081208F6EE242F12491BF91233CFC2
:1031C3001237BA1209207409120BA3E070030232FA
:1031D3006D1233CF125A29121D568A0E8B0FEA4BEA
:1031E30070030232FE7404120BA3E0F88E828F8305
:1031F300A3A3E028F8A3E03400F9E8240D1233ADCB
:10320300F88A828B83A3A3A3E068600EE88A828B8B
:1032130083A3A3A3123EC7122BC17904E9120BA304
:1032230012493AA3E02AF8A3E034008882F583A385
:10323300AA82AB831210848A088B098C0A8D0B85B2
:103243000E82850F83A3A3A3A378081208714003FA
:103253000233A59081837808120A6B850E82850F4D
:1032630083A3A312642FA312465E9013DBE06404CE
:103273006008E0640960030233A5E50CA2E540039E
:10328300023338EE242F124923F0EE243012491B67
:10329300C0E07401120BA3D0E0F0EE243112491BFD
:1032A300C0E07402120BA3D0E0F07414120BA3E07D
:1032B30064017026740E120BA3123D1624131249D7
:1032C3001B687003A3E0697011740C120BA3123313
:1032D300C970077414120BA3E4F0EE2425F582E4FD
:1032E3003FF58312075C7404120996740712098E62
:1032F30012184074041209200233A5901420E064CC
:1033030001600302326D7420120BA31233C37009E0
:10331300E50CA2E6500302326D7410120BA3E0F425
:103323007003A3E0F4607BEEFCEFFD740312098EDF
:10333300121B94806DA2E650697420120BA31257DE
:10334300487016741A120BA3E064027055740312CA
:10335300098E7900121CCC80497420120BA31233FE
:10336300BC7014741A120BA3E06404703574031256
:10337300098E121CC0802B7420120BA31233B5705C
:103383000C7900740312098E121D0E80157420121D
:103393000BA3125266E0640C7008740312098E12B8
:1033A3001D1A7429025B8EE82406F582E439F5833D
:1033B300E022125B55E0640322125B55E0640722AE
:1033C300124C44640622124437640222EE242BF585
:1033D30082E43F126427EE12440C22E0F508A3E0D6
:1033E300AA08FBE4FCFD121B7C2274F4120466EAB7
:1033F300FEEBFF8C088D09901341E0600F125D60B6
:103403007003A3E06970051218BE80537900125A45
:103413001C1218EE8A828B83E5824583602CA3A35A
:10342300A3A3A3A3E054186021E508241C12346964
:10343300120760123465120760EE24181237A112C6
:103443004F01125CD6120920801579008E828F837A
:10345300A3A3A312572E124F01125A291218C40202
:103463002FF9E5082413F582E43509F5832274F76F
:1034730012046674F71209B4EAFEEBFF9013DBE063
:103483006403600DE064016008E0640960030235D1
:103493006F8A828B83A3E0600302353D7C007D004D
:1034A3007A027B0012103C125DDD8A82125D7A90F3
:1034B30013CC12565A79531216EA9013DBE06409BF
:1034C30060099013D9125A29121D50851882851943
:1034D30083740112527E9013DB7404F07401120999
:1034E3008E794A1216E474011209967AD17B13126B
:1034F3001228901231E0640B70057406F080057990
:10350300001235749013CC1257347A037B001210D7
:103513003C9013CF1257347A047B0012103C901363
:10352300C6E0A2E35004D2F08002C2F012526B90C4
:1035330015B4120B8C121B7C802FFC7D007A037B4D
:103543001012103C901231E0640B7003740AF09077
:103553001345E4F0FA7B4012505B8E828F83A3E025
:10356300F91235749013DBE4F0121BBE74090241A7
:10357300109013D9125A2D12185222C082C0839070
:10358300135F125BB970179013DBE024FB60051423
:103593006007800A901365801F901367801AE849BB
:1035A30060071233AA6401700C8A828B83A3E0F94B
:1035B300121846800E901455125BB96006125267BA
:1035C3001205F1024DB2125D809013D9E068221208
:1035D3005D80E8FAE9FB2274F512046674D81209D7
:1035E300B48A088B098A828B83A3A3A3A3A3A3A36F
:1035F300A3E0C3940F500302378B8A828B83A3A368
:10360300A3125D9874151209968A828B83A3A3A3D0
:10361300A3A3A3A3A3123790FAA3E0FB121BCA74BC
:1036230015120BA3E0702E850882850983A3A3A33B
:10363300A3A3A3A3A3E0C3940B401A8E828F83A3F7
:10364300A3A3A3A3A3A3A3E064027009EE240B1214
:10365300491BF4600302378B7417120BA3E0600756
:103663006402600302378B9013DBE06402601CE0AA
:103673006406601790135F125BB9700302378B12F5
:1036830033AA6401600302378B802590135F125BBA
:10369300B9701D75080078081208F678081208F644
:1036A300EE24101237A18E828F831237BA120920AB
:1036B3008E828F831263FE123D46125D7C7402126A
:1036C3000BA312550F122BBBC0E07404120BA3D033
:1036D300E01237C3F508A3E0F509740F7808120B5D
:1036E3003D7405120BA3E508F07419120BA3E0C097
:1036F300E07406120BA3D0E0F0741B120BA3E0C01E
:10370300E07407120BA3D0E0F07416120BA3E0C011
:10371300E07409120BA3D0E0F07417120BA3E0C0FE
:10372300E07408120BA3D0E0F0EE241012491BC082
:10373300E0740A120BA3D0E0F0741A120BA3E0C0DA
:10374300E0740B120BA3D0E0F07427120BA3E0C0BC
:10375300E0740C120BA3D0E0F0741C120BA3A9822B
:10376300AA8389088A09750A0078081208EE7C087A
:103773007D007410120BA3AA82AB831249121209A3
:1037830020AA18AB1912184C742802426EE0F98A69
:10379300828B83A3A3A3A3A3A3A3A3A3E022F58262
:1037A300E43FF583E0F98E828F83A3A3A3A3A3A3AE
:1037B300A3A3A312642922125A2D121C8A74022273
:1037C300F0EE124F06E02274F212046674F8120946
:1037D300B48A0A8B0B8C0C8D0D89089080EEAC1883
:1037E300AD197408120831C200AC0AAD0BAA18ABAC
:1037F300191259AA7002D2009014278013AC0AAD93
:103803000BEE240BFAE43FFB1259AA701B1243FD83
:10381300124090601EA20040E48E828F83E0650C0C
:103823007004A3E0650D70E58E828F83A3A3E0652A
:103833000870DAEEFAEFFB7408023D53C082C083CE
:10384300901427024DAFC082C083901427E4F0A3E5
:10385300023AA574F7120466901427126317800FB7
:10386300EA2414F582E4125D9512112CEEFAEFFBB3
:10387300EA4B70EC901427E4F0A3F002411374F2C6
:103883001204668A0C8B0DEDFF890B8A828B83E011
:103893008C828D83F0A3A882A9838A828B831239B9
:1038A3004A123EC1E0C454F0FA88828983E04AF0A8
:1038B300EC2402F8E43FF9850C828B83A3A312392D
:1038C3004A12395DE0333354FC123951E033333358
:1038D30054F8123951A3E0A2E0E4331313FA8882B7
:1038E3008983E04AF0EC2403FE50010FE50C240722
:1038F300F508E4350DF509750A0078081208EE7C21
:10390300087D00EEFAEF124911120920EE2408FE99
:1039130050010FE50C240FF508E4350DF50978087F
:103923001208EE7C037D00EEFAEF12491112092012
:10393300E50BC3940F400DE50C2412F582E4350D1D
:10394300124F15F0023D56A3E08882898322FA883C
:10395300828983E04A12395DA322F0850C828B832E
:10396300A3A3A3A32274F2120466EBFF8C0C8D0DA8
:103973008A82F583E08C828D831263E8A3A882A9EF
:1039830083E0124D5A123D3CC4124D54F0EA1263C7
:10399300F2124D61123D3AA2E2E4338C828D83121E
:1039A3003D39131313541F124D5AA3123D39A2E785
:1039B300E4338C828D83A3A3A3A3A3A3F0EA2403FC
:1039C300FE50010FF5088F09750A0078081208EEFA
:1039D3007C087D00E50C240712490D120920EE2412
:1039E30008FE50010FF5088F0978081208EE7C03D2
:1039F3007D00E50C240F12490D1209208E828F835E
:103A0300A3A3A3E0C0E012640ED0E0F0023D56741D
:103A1300F6120466EAFEEBFF8A82F583A385820829
:103A2300858309E0F912186A850882850983E064B1
:103A3300EB601E8E828F83A3E064E160148E828F1D
:103A430083A3E064F1600A8E828F83A3E0641A701B
:103A5300078E828F83A3E4F09015B4120B8C121B94
:103A63007C75080178081208F68E828F83A3E0F52F
:103A73000878081208F679009013D9125734901376
:103A8300CF1237BA120920121BDC025122C082C0A6
:103A930083E99014397003E4800274018004EAF02E
:103AA300A3EBF0024DB2125A2D1217022274F61232
:103AB3000466901439E0701B7C0079017A007B0066
:103AC300121C0CEA4B600C8A828B83125BB9600375
:103AD300121B70025122C082C083123F70401079C2
:103AE300FF121C06E9F89027A7E493C398500479C2
:103AF3000180027900024DB274F21204668A0A8BC5
:103B03000B8909C2008A828B83A3A3A3A3A3A3A3C4
:103B1300A3E0F9121C128A0C8B0DAE0CAF0D7508C5
:103B230001EA4F6003023BDC850A82850B8312574F
:103B33002E850A82850B83A3A3A3A3A3A3A3123D6C
:103B43001B121BFA8A0C8B0DAE0CAF0DEA4F7003E0
:103B5300023CE88A828B83A3A3A3A3E4F0A3F0E54A
:103B63000A240CFAE4350BFB8A82F583E0C0E012E9
:103B73003CEFD0E0F0E50A240D123D0F240D125660
:103B830054121CF0124415125B75E50A2411123D00
:103B93000F2411125654E50A2413125DA7C0E01234
:103BA3004407D0E0F0D200EE2406F8E43FF9123DDA
:103BB30002123D3D54046003023C4E9015C6E0F5ED
:103BC3000A750B007407780A120A588E828F83A332
:103BD300A3A3A3A3A3123CF9F08E828F83A3A3A371
:103BE300A3A3A3E0F50AA3E0F50B7407780A120B6D
:103BF3003DE50A5407FCE50960618E828F83A3A328
:103C0300A3A3A3A3A3A3A374021242681240056053
:103C13000B9013C712499BA3A312565AEC700302CD
:103C23003CBFEE2406F8E43FF9E8FAE9123D02F05E
:103C3300EC24FFF50AE434FFF50B7407780A120A43
:103C4300588A828983123CF9F080718E828F83A314
:103C5300A3A3A3A3A3E04480023BDBEC7005750898
:103C63000080598E828F83A3A3A3A3A3A3E0542030
:103C7300600C12108AEA547F7900245F80198E82C7
:103C83008F83A3A3A3A3A3A3E05410601A12108AE3
:103C9300EA540F7900240A5001098E828F83A3A36B
:103CA300A3A3F0A3E9800D8E828F83A3A3A3A374A0
:103CB30001F0A3E4123D467404123F86A20050288B
:103CC3008E828F83A3A3A3A3125A33F9EEFAEFFBD9
:103CD300121C00E96012125BB26003123D28EEFA77
:103CE300EFFB12112C750800A9088067EE240CF570
:103CF30082E43FF58322E0450AF0A3E0450B2288E6
:103D030082F583E0547FF0A3E054FC22F582E4358E
:103D13000BF583125D80EE22A3E0F9850A82850B01
:103D230083125A2D22123D2F12418522EE240FF5C4
:103D330082E43FF58322A3A3A3A3123D4122125D94
:103D4300C3E022123D4A2212425EA3A3A3227403BC
:103D53001209207F0602069174F412046674F712A6
:103D630009B47E00121C12EA4B7003023E0E8A82D3
:103D73008B83A3A3A3A3A3A3A3A3A3E064066003CA
:103D8300023E0E8A828B83A3A3A3A3A3A3A3E0FF74
:103D93008A828B831263B0E0C0E07408120BA3D055
:103DA300E012413612564712565A121C24EF540899
:103DB30060578518828519831257347A007B001265
:103DC3001BF4EA4B70431264197C007D007A007B7C
:103DD3000080228E828F83124C40F47003A3E0F4A0
:103DE30060279013D9123E13124118601C7C007D8A
:103DF30000EEFAEFFB121BF48A0A8B0BAE0AAF0B31
:103E0300EE4F70CF790012171A7E01EEF9022FF4EC
:103E1300123E1722E0FCA3E0FD8E828F8322C08234
:103E2300C0838A828B83E5824583700990143E8028
:103E3300068A828B83A3A312403960208A828B83F4
:103E4300A3A3A3A3A3A3A3E0540860E5EC4D6010D0
:103E530012403F7003A3E06D70D780047A007B00AB
:103E6300024DB274F21204668A088B09890AECFEC9
:103E7300EDFF7A147B00121126EA4B60378A828B9E
:103E830083A3A3A3A3A3A3A3A3A3E4123ED7E50AF7
:103E9300124122EEF0A3EF123EC712413D123ECE75
:103EA3008A828B83126431123EBA125AB0A3123E35
:103EB300C1F0A3F0023D56EA240FF582E422126317
:103EC300ECA3A322124128E4F0A322A3F01263A9D6
:103ED300125AB022123EDB2212412CA3A3A3A32227
:103EE30074F5120466EAFEEBFF890A8C088D09EA71
:103EF3004F607574016970127901121C06E9F8901C
:103F030027A9E493C3985015800A740469700912B1
:103F13003F70500979118052740269704B8E828F01
:103F230083A3A3A3A3A3A3A3A3A3E50A123F7F127F
:103F33004655125C3AA3E4F0A3F090143E125BB929
:103F430060188003125D7C88828983A3A3124039A1
:103F530088828983A3A370EC800390143EEEF0A3C0
:103F6300EF123F867900800279C10242717904120F
:103F73001C06E9F89027A8E493C39822125C3EA399
:103F8300A3A322F07A207B00901426E0F91210D22A
:103F930022C082C083E9F8790090143E801D8A8292
:103FA3008B83A3A3A3A3A3A3A3A3A3E06860057424
:103FB300FF687001098A828B83A3A312403970DEE4
:103FC300024DB274F7120466EA4B700590143E80FA
:103FD300068A828B83A3A3124039601F8A828B8354
:103FE300A3A3A3A3A3A3A3A3A3E06970E4EC600F1B
:103FF3008A828B8312400570D880047A007B00028A
:1040030041131263C9E0540422C082C08390143E5A
:1040130080068A828B83A3A312403960128A828B23
:1040230083A3A3A3A3A3A3A3A3E06970E580047A56
:10403300007B00024DB2125A2DEA4B228A828B83F7
:10404300124C446C2274F21204668A0A8B0B8C0C99
:104053008D0D750800750900EA4B602A90143E80A7
:10406300068E828F83A3A3124090601AAC0CAD0D11
:10407300EEFAEFFB850A82850B831205F1E96401F1
:1040830070DF8E088F09AA08AB09023D56E0FEA334
:10409300E0FFEE4F2274F712046690143E125D7C2B
:1040A3007C007D00800DE8FCE9FD88828983A3A361
:1040B300125D7CE8496030EA687002EB6970E79052
:1040C300143E125A29E86A7002E96B88828983A335
:1040D300A37008125D7C90143E8009125D7C8C8273
:1040E3008D83A3A312565A802774F7120466EAFE3F
:1040F300EBFFEA4F6015121C1E124171125BB26096
:1041030003123D28EEFAEFFB12112C800312092053
:104113007F01020691125A2D12170EE9641A221218
:104123004128A3A32212412C22F08A828B83A3A3CA
:10413300A3A3221263EC124C4422123EDBA322748B
:10414300F612046690143E125D988014125DB51247
:104153004171123D28EEFAEFFB12112CAE08AF09A4
:10416300EE4F70E890143EE4F0A3F00251228E82E9
:104173008F8312639DF5831241858E828F83124153
:104183008522E0FAA3E0FB12112C22C082C083EA4D
:10419300FCEBFDEA4D6017EA24FBF582EB34FF12DA
:1041A3005BB770071241E3E0F460071210967905DC
:1041B300802B901426E0C0E01241E3D0E0F090277A
:1041C300A0E493F97A407B141210CCE96401700BDC
:1041D3007A007B201241F2790080027904024DB209
:1041E300EA24FFF582EB34FFF583227A207B0090EB
:1041F3001426E0F91210D22274F4120466A2AFE47A
:1042030033F508C2AF9014401240906038EE24FB9F
:10421300F582EF34FF125BB77A007B20901426609F
:10422300051241F58005E0F91210D8E4F50AF50B03
:10423300780A1208F2EEFCEFFD7A407B141210C6E6
:104243007402120920E508A2E092AFEEFAEFFB0236
:104253002FF912425AE02212425E22124268A3A3AD
:10426300A3A3A3A322F08E828F83221209207F03AC
:1042730002069174F212046674FA1209B4EAFEEBB0
:10428300FF7508FE7509FF121BE2E960057911024B
:1042930043F8124918603C9015E0E0C43354E0F849
:1042A300E0333354FC48C0E0EE1253273FF583D08C
:1042B300E0125DD7FAA3E0FB79FF1219BAEA4B606B
:1042C300127508FFEE240F12491B4404F01249181B
:1042D300D2E0F08E828F831244316006EE241212F4
:1042E3005DEFEE241312491B700D9027ABE493C0CE
:1042F300E0124407D0E0F08E828F83E0A2E75004FF
:1043030054038019EE241412491B70129013B8E061
:10431300C0E01243FDD0E0F09013B8E004F0EE24C7
:104323001112491B640170169015CAE0600D9013B9
:10433300C3E0700A8E828F83E07003125DEC8E827D
:104343008F83E064017013EE240B124C3A64027005
:1043530009EE240F12491B4440F0AC18AD19EEFAD4
:10436300EFFB121C4E8A0A8B0B74FE6508700374F4
:10437300FFF47003125DB5EA4B60768E828F83E0A3
:10438300C0E07401120BA3D0E0F07404120BA3EE8F
:10439300F0A3EFF0EE241E125D767402120BA3124B
:1043A300565A7401120986880C890D780C1208F28A
:1043B300EE242012441A1208F6124415120760EE76
:1043C300240E12441A1208F69013CC1207607408D4
:1043D300120BA3E0F9AC08AD09121C4874081209CA
:1043E30020E9FE74106E700BAA0AAB0B12112C801D
:1043F300027E10EEF97406023D53EE2414F582E4B6
:104403003FF58322EE12440C222413F582E43FF598
:104413008322EE123D3022F582E43FF583E0F50C72
:10442300780C228E828F83A3A3A3A3A3A3A3A3A306
:1044330012443722E0FAA3E0FB121CEAE922C0820D
:10444300C08374D71209B4908092740312099674CE
:10445300261208318A828B83A3A3A3A3125D7C74E3
:104463000E120BA3125BBF125D7C740C120BA31212
:10447300453A240D12452AC0E0741A120BA3D0E06A
:10448300F0125AB6125D7A7420120BA312453A2425
:104493001512452AC0E07408120BA3D0E0F0EA24F9
:1044A3001CF582E43B125D7A7412120BA312453A97
:1044B300241112452AC0E07409120BA3D0E0F0EADC
:1044C300241212452AC0E07407120BA3D0E0F0EACD
:1044D300241EF582E43B125D7A7424120BA3124569
:1044E3003A242012452AC0E07426120BA3D0E0120E
:1044F300453274FFF07401120BA374FFF0740212BF
:104503000BA374FFF090816F12075C740412099679
:10451300740712098E12184074041209207900746A
:1045230029120920024DB2F582E43BF583E022F023
:1045330085188285198322E8F0A3E9F0EA2274F44E
:1045430012046674EC1209B48A0A8B0B8C088D0969
:10455300E9FF7E107A217B001211268518828519C6
:1045630083EAF0A3EB125BC9E849700302464E7C71
:10457300217D007900851882851983E0FA12107E67
:104583009013D9125A298518828519831257382412
:1045930009F582E438F583125B757420120BA312BC
:1045A3005D7C7411120BA3E8124CA9125B7B38F5E6
:1045B300837402124CAC1263B77402124C96124607
:1045C30055124CAC126394EFF07422120BA3124CED
:1045D30057F9A3E0C912608039F583E812496CA347
:1045E300E0C9241FF582E43912465C7423120BA33D
:1045F300125A297406120BA3125B757408120BA3CB
:10460300E8F07426120BA3125B4FC082C083740CB4
:10461300120BA3AC82AD83D083D082740512083110
:104623007425120BA3E0C0E07413120BA3D0E0F0C7
:104633007900AA18AB19121BE8E9640170047E0023
:104643008009851882851983123D2BEEF9741402B3
:104653002FF6E508F0A3E50922F583E50AF0A3E5C3
:104663000BF02274F012046674FF1209B4EAFEEB35
:10467300FF8C088D098A82F583A37408F0EA241657
:1046830012491B60088A828B83A37410F0EA2417F3
:1046930012491B60098A828B83A3E02408F0EA1283
:1046A300491960088A828B83A3E004F08A828B8392
:1046B300A3A3A3A3A3A3E060198A828B83A3A3A3C9
:1046C300A3A3A3A3E0C3332402F88A828B83A3E0CA
:1046D30028F0EA24111249236004740E8001E4F0E7
:1046E3009015D8E0640170168A828B83E0640160C0
:1046F3000D901345E06007124903740180041249C9
:1047030003E412496C8A828B83A3E0F8EA122BBB81
:1047130028298C828D83F0EA241112491B6005122B
:104723004F4429F0850882850983E0C394754009C5
:10473300750C00750D000248FAE0FA7B0012112691
:104743008A0C8B0DEA4B70030248FA8E828F83E04A
:10475300FA9013C912496574027808120A58EA4597
:1047630008FAAB09EE241212495F74067808120A9C
:1047730058A808EA48FCEBFD124918600478018048
:10478300027800EE2416FAE43FFBE4C8F9ED49FD94
:10479300EE241112491BF508880974097808120AD6
:1047A30058ED4509FD8A828B83124965740B78089D
:1047B300120A58ED4509FDEE241712495F740C786F
:1047C30008120A58ED4509FD8E828F83A3A3A3A384
:1047D300A3A3124965740A7808120A58ED4509FD26
:1047E300EE242312495F740D7808120A58ED450927
:1047F300F9EC850C82850D83F0E9A3F0EE24021217
:104803004942124981F0EE2404124942A3A31249FA
:1048130081A3A3F0EE2413124952F0EE241412499B
:1048230052A3F0750B088A828B83E06015125C2B10
:10483300125734E50C2408FAE4350DFB12122875DF
:104843000B10EE241712491B60191257B712573475
:10485300A80BE50C28FAE4350DFB12122874082581
:104863000BF50B8E828F83A3A3A3A3A3A3E0604EB8
:10487300EE2407F50EE43FF50F850E82F583E0C0C5
:10488300E0124931D0E0124971E0C0E00812493327
:10489300D0E0124971A3125BA51208EE850E828542
:1048A3000F83E0124C0BA80BE50C2812490D1209DB
:1048B30020850E82850F83E0C333250BF50B124948
:1048C300186008C0E0124931D0E0F0124F01125BCA
:1048D300A51208EE122BBAFC7D007403120BA3126F
:1048E300493AE0F8E50C28F8E4350DF9E82AFAE44A
:1048F30039124911120920AA0CAB0D7401025B8E07
:10490300EA2423F582E43FF58322FAE4350DFB1212
:104913001072740322EE2415F582E43FF583E0223E
:10492300F582E43FF583E085188285198322A80B7D
:10493300E50C28124C1E22E0FA8E828F83A322F804
:10494300E43FF98882F583E0850C82850D8322F5A7
:1049530082E43FF58312498BA3A3A322F582E43FAC
:10496300F583E0F508750900221263DAF922F005F0
:104973000B8E828F83A3A3A3A3A3A3A3A322A3A387
:10498300125DC3A312498B22E0850C82850D83A39C
:10499300A3A3227403022FF6125D808E828F83A35A
:1049A300A32274F012046674FD1209B4125B6F74CF
:1049B30002120BA3E9F08C0C8D0D750B017C267D87
:1049C300007900AA0CAB0D12107E7402120BA3E047
:1049D300C394085003024B9412494AF0AC0CAD0D3A
:1049E300851882851983124C40FA851882851983AC
:1049F300125266124F3DE96003750B0085188285DC
:104A03001983125B4F124C61E0F9EA850C82850D24
:104A130083A3A3A3A3A3A3A3A3A3F0A3E9124C96E5
:104A2300A3A3124C61A3A3E0F9E50C125BCEEA1237
:104A33004CA9125724C0E0E50C2411126412D0E0F3
:104A4300124CAC2407F582E438F583E0C0E012642D
:104A53000ED0E0125B627408124C8DA3E0602685D1
:104A63001882851983E02408F8A3E03400F9E50CE3
:104A73002413F582E4350D125658850C82850D8377
:104A8300A3E02408F0850C82850D83A3A3A3A3A32D
:104A9300A3A3A3E0602A850C82850D83A385820EE0
:104AA30085830F124C4EF8A3E03400F9E50C125342
:104AB30027350D125658850E82850F83E02408F0A2
:104AC300124C12E4F0124C26E4F0A3125B62A3A38F
:104AD300A3A3E06011124C72850C82850D83A3A3FE
:104AE300A3A3A3124C9EE50C124C33E07003024BBC
:104AF30080124C72FA124C12EA124C9EF8851882FC
:104B0300851983E028FBA3E034008B82F583E0F86A
:104B1300E50C241A126412E8124C9EE8C39AE50CC1
:104B23005056124C2EF89027A1E493C39850047E5C
:104B33000C8006E50C124C2EFE850C82850D83122B
:104B43004C4DF508A3E03400F509750A0078081206
:104B530008EEEE124C0B7AF97B0812491212092067
:104B6300124C2674F9F0A37408F0EEC333F8850EE3
:104B730082850F83E0288004124C33E4F0850C8295
:104B8300850D83A3E0F8850C82850D83E0C39850DF
:104B93000479008070124C4DFAA3E03400FBE50C5D
:104BA300125DE6126415125B75850C82850D83E038
:104BB300C398C0E0E50C2417126412D0E0124C8DA8
:104BC300E06040E50C2417FEE4350DFF8E82F5838B
:104BD300E024F2F0E50C241DF8E4350DF98882F5A4
:104BE30083E0240EFAA3E03400FB88828983125BFE
:104BF300759013C4E0F9121B40E9F88E828F83E0AD
:104C0300C398F0A90B025B8C25E0FCE433FD22E59D
:104C13000C124C18222419124C1E22F582E4350D75
:104C2300F58322E50C241B124C1E22124C18E022A1
:104C3300125B5C124C2122F582E43FF583124C4453
:104C430022125D85F5838882E022A3124C52221240
:104C53004C572822E0F8851882851983E022A3A304
:104C6300E0FA851882851983125B55A3A3A32285D5
:104C73000C82850D83A385820E85830F124C52FA15
:104C8300A3E034008A82F583E022125B66A3A3A328
:104C9300A3A322124CB1F583888222F0850E82856C
:104CA3000F83E004F022F0A3E9124CB1C82212638F
:104CB300DEF8A3E02274F41204668A088B09EA1270
:104CC3004D61A3A3F0EA1313543F124D54A3F0EA2A
:104CD300C41313124D61124D6B7409780A120B3D04
:104CE300124D4BA3A3A3A3A3A3F0EB124D4D124D5F
:104CF3006A740A780A120B3DE50A5401C0E0EC120B
:104D03005B5C3DF583D0E0124D6F740B780A120B98
:104D13003D124D4B124D68740C780A120B3D124D27
:104D23004BA3124D68740D780A120B3DE50A54012A
:104D3300C0E0EC2424F582E43DF583D0E0F0740E6A
:104D43007808120B3D022FE5E50A54018C828D830E
:104D530022124D5AA3A322540F8C828D8322540313
:104D63008C828D8322A3A3A3A3A3A3A3F08A0A8B7C
:104D73000B22C082C08379008A828B83A3A3A3A35F
:104D8300A3A3E09013C3600EE0701F8A828B83A3FA
:104D9300A3E070168012E06011125A1C9013CCE04D
:104DA3006A7003A3E06B600279018003125A29D071
:104DB30083D0820208B574F21204668A0A8B0B89C7
:104DC3000CECFEEDFF8A828B83E0FA124F3D850ADD
:104DD30082850B83A3A3124F31E0F9EA8E828F837E
:104DE300A3A3A3A3A3A3A3A3A3124F56124F31A319
:104DF300A3E0F9124F01EA124F56A3A3E0C0E0EE7D
:104E03002411F582E43FF583D0E0124F5DA3A3A301
:104E1300E0C0E0EE2412F582E43FF583D0E0125CBB
:104E23003A7408123F7FA3A3A3E06017E50A24089E
:104E3300F8E4350BF9124407E8F0A3E9125C3AE011
:104E43002408F08E828F83A3A3A3A3A3A3A3A3E029
:104E530060188E828F83A3124F20EE2415125654AE
:104E6300850882850983E02408F08E828F83A3A3BB
:104E7300A3A3A3E060248E828F83A3858208858306
:104E830009E0F8E50A28F582E4350B124F15A3A3D0
:104E9300F0850882850983E004F0EEFAEFFB121C2B
:104EA30060E9F50D70498E828F83A3A3A3A3A3A307
:104EB300124F0FA37014E0F8E50A28FAE4350BFB50
:104EC300124EF7125B75E50C801A124F20E8240E80
:104ED300F8500109EE241D125654124F44F9E50C03
:104EE300C39924F2C398C0E0EE1257AED0E0F0A904
:104EF3000D023D56EE241DF582E43FF58322EE12AA
:104F03004F0622240BF582E43FF58322E08E828F45
:104F13008322F583E08E828F83A3A3A32285820855
:104F2300858309E0F8E50A28F8E4350BF922E0FA6D
:104F3300850A82850B83A3A3A322125DF8121C5A50
:104F4300229013C4E0F9121B40E9F8850882850911
:104F530083E022F0A3E9124F5D22F0850A82850BDC
:104F630083A3A3A3A322C082C0837A4C7B1479E2D8
:104F73001216E47A4C7B14024DB2C082C0839013A4
:104F8300CC024DAFC082C0839013CF024DAFC0821D
:104F9300C083794A1216E4024DB274F61204669085
:104FA3001454E0FE04F0EEF9121C12EA4B70F0EE1A
:104FB30060EDF902512274F2120466EAFEEBFF8CF3
:104FC300088D09890A121D56740E120BA3E0F97499
:104FD3000F120BA3E0F8EA4B7012E8701BA90AAC9E
:104FE30008AD09EEFAEFFB121D748065E86017E95E
:104FF30070068A828B83E4F07401687054E990141C
:10500300577024E4801EE97048EA240212452AA856
:105013000A28F8E4340013E813F070358A828B838E
:10502300A3A37401F0802AE004F09015C7E0F89080
:105033001457E0C398401AE4F09013CFE06E700366
:10504300A3E06F700CEEFAEFFB79011218641250B3
:1050530057023D567A017B00901426E0F91211F8AD
:105063002274F41204668A088B098C0A8D0B9081D2
:105073008378081209F470077A011241F0801E90B8
:1050830015B47808120B2EEA4B4C4D600D780812BC
:1050930008EA122D941209208003125057022FF9A7
:1050A300C082C0839015B8023AA1C082C083901514
:1050B300BA023AA174F61204667E007508B875093F
:1050C3001378081208F27C6E7D007A217B0012119E
:1050D3009E7402120920E9640A70027E011217B657
:1050E300E9640A7004EED2E1FE900436125BB96003
:1050F3000F1252671205F1E9640A7004EED2E3FE5F
:105103001219CCE9640A7004EED2E4FE121666E9C1
:10511300640A7004EED2E5FEEEF980031209207FE3
:105123000202069174F61204661210367508B875F9
:10513300091378081208F275086E750900780812C9
:1051430008F21251641209201217BC900438125B42
:10515300B960061252671205F11219D2121678803D
:10516300BE7C007D007A217B001211AA7404227494
:10517300F612046674FF1209B47E007508B8750947
:105183001378081208F27C6E7D007A217B001211DD
:105193009E7402120920E9600302523E7808120845
:1051A300F275086E8E0978081208F27C007D007A89
:1051B300217B001211B07404120920E9707D901351
:1051C300CCE064FE7003A3E0F460707E019013DB17
:1051D300E064086005E06404705C851882851983C7
:1051E300EE12527E7AE37B1379431216EA7AE07B5E
:1051F3001379471216EA7AD17B13794A1252597AF4
:10520300D97B1379501216EA7ACC7B137953121691
:10521300EA7AE17B1379541216EA7ACE7B1379E1A9
:105223001216EA9013C6E0A2E35004D2F08002C241
:10523300F012526B80051210367E001217AA9004EA
:105243003A125BB960061252671205F11219DEEECB
:10525300F9740102511F1216EA7ACF7B13794B12AC
:1052630016EA22A3125B5622A2F0E4338518828544
:1052730019831252DD79521216EA221252DD794253
:105283001216EA2274F6120466E9FEA2E0501C75B7
:1052930008B875091378081208F275086E750900C5
:1052A30078081208F2125164120920EEA2E35003A7
:1052B3001217B0EEA2E2500E90043C125BB96006E6
:1052C3001252671205F1025122121BC47A297B1470
:1052D30079451216EA221252DD22F0AA18AB1922DE
:1052E30074F712046674ED1209B4E9FE901425F004
:1052F300AC18AD1912530F7412120BA3EE12531CF8
:10530300AA18AB191252CC74130241109015F6E08F
:10531300F97A297B14121BCA22F09015F6E0F97C66
:10532300297D14222415F582E4221263AA3509F596
:105333008322EFFB901426E0F912109C22EE241630
:1053430012534722F582E43FF5837401F02212637E
:10535300A93FF58312535B22125D85F98882F58399
:105363002274F41204668A088B097A007B041250B3
:105373005B1254069013DB7409F012599E123465C4
:10538300125A291259AA640170677A0F7B0012100E
:10539300908A0A8B0BAF0BEA4F60568A828B837419
:1053A30002F0E508125DE63509125E04FC88828985
:1053B30083A3A3E0FBEC8A828F83A3A3125B76888B
:1053C300828983A3A3A3E08A828F831253F7FAA36C
:1053D300E0FB794A1216EA850882850983A3A3A311
:1053E300A3A3A3E070069012317405F0AA0A125326
:1053F30035022FF9A3F0E5082415F582E43509F504
:1054030083E022901361125D809015BAE8F0A3E95E
:10541300F0901363125D809015B8E8F0A3E9F022D1
:1054230074F412046674FD1209B48A088B097401BA
:10543300120BA37402125C5B70030254FE125351ED
:105443007404F0A3E412551BE06401700888828998
:1054530083A37420F0850882850983A3A3A3A3A350
:10546300E06401700988828983A3E0D2E6F08508AD
:1054730082850983A3A3A3A3A3A3E06401700A887D
:10548300828983A3E0D2E78006EA124408740112FA
:105493005516E064017020850882850983A3A31251
:1054A3005BB96004EA125341850882850983A3A38B
:1054B300125D7CEA125652850882850983A3A3A351
:1054C300A3A3A3A3E064017009EA240F125343A327
:1054D300E4F08508828509831244336009EE240FC2
:1054E30012491B4404F0125527850882850983124B
:1054F300550312550D125DC9F980027910024996C0
:10550300E0F8A3E0F98E828F8322A3A3E8F0A3E956
:10551300F0EE2212551BA322F0850882850983A38E
:10552300A3A3A322EE12579C2274F512046674F30C
:105533001209B4890AEAFEEBFF7508007509007CBD
:105543000D7D007900AA18AB1912107E124EF712C6
:105553005741741F58600C7AD37B0012149879005A
:1055630002563DE8A2E55008740C120BA37401F037
:10557300E8A2E75008740B120BA37401F0E8A2E64B
:10558300740A5008120BA37401F08008120BA3E0F5
:10559300640170138E828F83A3A3A3A3A3A3A3E0A9
:1055A3006036EE241380128E828F83A3A3A3A3A35A
:1055B300A3A3A3E06022EE2415F582E43FF5831252
:1055C3005DBBE50845096010AC08AD097402120B18
:1055D300A3AA82AB83121228124F0112564212560B
:1055E3005A740A120BA3E0640170469015EBE06055
:1055F30047640170069015D4E0603DEE240B125D04
:10560300769013CFE0687003A3E069702B124426F1
:105613007026E50845096019121C6C8A088B09ACD1
:1056230008AD097402120BA3AA82AB831259AA60B4
:1056330007AA18AB1912185EA90A740D02426E125A
:10564300564622E0F8A3E0F98518828519832224BF
:1056530018F582E43FF583E8F0A3E9F02274F7122A
:10566300046674CD1209B4EAFEEBFF8A82F5831255
:105673005738125724A2E0400302571F8A828B83B4
:10568300125357A3A3A3A3A3A3E054FE12608D74E4
:105693000D120996EA241E12452A125CF3125A29A6
:1056A300121C66E97076742A120BA3125748706CA9
:1056B3007C0D7D007900AA18AB1912107E741612A6
:1056C3000BA312564212565A742A120BA3125741B5
:1056D300A2E55008740B120BA37401F0E8A2E75083
:1056E30008740A120BA37401F0E8A2E650047420B4
:1056F30080027422120BA31257347402120BA3AA52
:1057030082AB831212288E828F83A3A3E0C0E0743E
:105713000C120BA3D0E01252D91218587433024161
:10572300102406F582E438F583E022A3A3A3A3A300
:10573300A31264292212573C22125D85C822125BF0
:1057430053A3E0F822124C44640422E9F87900746C
:105753000468600A740A686005740368700279015A
:105763000208B574F61204668A828B837424F0A34C
:10577300A37401F01217DA8A088B09AE08AF09EA9D
:105783004F60078A828B83125794EEFAEFFB025124
:10579300227401F0EA12579C221257AE7401F012E0
:1057A3001C6C1257B7EAF0A3EBF0222417F582E43E
:1057B3003FF58322EE241AF582E43FF58322C0826B
:1057C300C0839014427401F0E9A2E350037403F020
:1057D300E9A2E15004E0D2E2F0024DB274F6120401
:1057E3006679007C008A088B0978081206D7F8FFCF
:1057F30007145812581258125812580A580E5814AF
:105803005806587C01800A7C0480067C0280027C56
:1058130008901442E05C600479028005EC60027930
:105823000102512274F61204668A828B83E070149B
:10583300A3A3A3125BB9600C8A828B83125A26122C
:105843001A2C80047A007B00025122C082C0837824
:1058530000E875F003A4FCA9F0E9FD1258DD6A70B5
:1058630003A3E06B7018902799E493C0E074432C72
:10587300F582741439F583D0E0F079C5805908E8CE
:10588300C3940340CC7800E875F003A4FCADF01298
:1058930058DD64FE7003A3E0F4601E08E8C39403BC
:1058A30040E57800E875F003A4FCADF074432CF5F3
:1058B3008274143DF583E07015E8125E39125B754E
:1058C300902799E49388828983F07900800908E816
:1058D300C3940340CF79C7024DB274442CF582744C
:1058E300143DF583E02274F412046674F31209B4D0
:1058F300EAFEEBFF8C088D09750A12EA4F700579F1
:10590300000259999013CCE06E7003A3E06F7014FA
:1059130012599EAA08AB091259AA7005750A01808B
:1059230003750A00851882851983E4F004120BA31A
:10593300EEF0A3EF1252D9121792E9602974031201
:105943000BA3AA82AB8312176EE964017018750A60
:10595300017403120BA3AC82AD83AA08AB091259DD
:10596300AA6003750A00AC08AD09EEFAEFFB121D3D
:105973005CE9F8740A687005750A01801774A068F9
:105983007012AC08AD09EEFAEFFB121D68EEFAEFE8
:10599300FB121D7AA90A740D022FF6121C6C8A0AD7
:1059A3008B0BAC0AAD0B22121222E92274F71204FC
:1059B30066EAFEEBFF8A82F583A3A3A3A3A3A3A3B3
:1059C300A3E06019EA2415122FE9124F02125A2993
:1059D300121CFCE964017005124F01802D8E828F29
:1059E30083A3A3A3A3A3A3A3E06029124407125A8A
:1059F30033FAA3E0FB121CFCE9640170178E828F5B
:105A030083A3A3A3A3A3A3A3A3A3125A29121CF69C
:105A13007901800279000241138A828B83A3A3A3B5
:105A2300A3A3A3A3A3A3125A2D22E0FAA3E0FB226C
:105A3300123E17A3A3A3A3A3A3A3A3A3E02274F2D9
:105A430012046674FD1209B48A088B09ECFEEDFF9B
:105A5300890A750B017401120BA37404125DD160E2
:105A6300447411120BA3E06015125C51E4125D9EA5
:105A73008A828B83E0D2E7F0EA2414125AAD125AD9
:105A8300B61253557403F0A3E50AF0EE88828983B6
:105A9300A3A3F0EF88828983A3A31263E712642F81
:105AA300125DCCF50BA90B023D51F582E43BF58366
:105AB300E4F0221263A93B2274F4120466EAFEEBBB
:105AC300FF8908EA124EF8125B4FA3E0FAEE24179F
:105AD30012491B640460097AD37B00121498806313
:105AE300EA1207E501000EF25A00EF5A7508001298
:105AF3004EF7A3E0F9EE2409F50AE43FF50B88829B
:105B03008983A3A3E0FC88828983A3A3125B7FF923
:105B1300850A82850B83125A29121876850A828593
:105B23000B83124433601CEE241112491BC39402ED
